:040000006F20A00EBF
:1000040000000000000000009E140000A014000086
:10001400000000000C0200000000000000000000CE
:100024000C0200000C0200000000000000000000B0
:100034000C020000000000000C02000000000000A0
:100044000C0200000C0200000C0200000C02000074
:100054000C0200000C0200000C0200000C02000064
:100064000C0200000C0200000C0200000C02000054
:100074000C0200000C0200000C0200000C02000044
:100084000C0200000C0200000C0200000C02000034
:100094000C0200000C0200000C0200000C02000024
:1000A4000C0200000C0200000C0200000C02000014
:1000B40006120000D21100000C0200000C02000025
:1000C4000C0200000C0200000C0200000C020000F4
:1000D4000C0200000C020000BA1300000C02000025
:1000E4000C0200000C0200000C0200000C020000D4
:0C00F4000C0200000C0200000C020000D6
:0401000021505041F9
:10010400397101436EC619A0397141536AC866CA70
:1001140062CC5ECE19A0397101535AD056D252D452
:100124004ED64AD826DA22DC06DE330161408282CA
:1001340041114AC026C222C406C68282B24D410180
:10014400024D924C224CB24B4101024B924A224A3C
:10015400B2494101024992442244B24041018280A1
:100164003D432A876373C3029377F700BDEFADE580
:10017400937606FF3D8ABA960CC34CC30CC74CC792
:100184004107E36BD7FE11E28280B306C3408A06BF
:100194009702000096966780A6002307B700A3067F
:1001A400B7002306B700A305B7002305B700A304CF
:1001B400B7002304B700A303B7002303B700A302C7
:1001C400B7002302B700A301B7002301B700A300BF
:1001D400B7002300B700828093F5F50F939685004E
:1001E400D58D93960501D58D61B793962700970217
:1001F400000096968682E78086FA9680C1171D8F46
:100204003E96E374C3F8A5B701A0C167E976014738
:10021400FD1785066314B7003E8582803306E5002A
:100224001022B18F214613F8170085836305080057
:10023400B58FC207C1837D167DF60507E1BFEFF2D6
:100244009FED09E9373501408145130505C0EF20CD
:10025400403DE5BD1304803E3304850283A78180BD
:10026400AA8433D487024204418011E00544B3D701
:100274008702054963E9970033D99702C16763642C
:10028400F9001389F7FF9305F4FFB7390140C2055C
:100294000546138509C0C181EF20A03C130AF9FF6C
:1002A40093150A01138509C0C181EF20603E93555F
:1002B4001A00C205138509C0C181EF20A03D138532
:1002C40009C08545EF20E03537450000CA862286FF
:1002D400A685130585FDEF20A071A5BFEFF25FE5AC
:1002E400797185457145EF20A01C371401408D4478
:1002F400414985470C10130504C026D24AD4231063
:10030400F102EF10F07589470C10130504C0231097
:10031400F102EF10F074A1470C10130504C0231070
:10032400F102EF10F073130504C08545EF20A0031C
:10033400130504C08945EF200003130504C0A1453B
:10034400EF206002930700100C10130504802310A3
:10035400F1024AD4EF10D070130504809305001005
:10036400EF2060000565854513050580EF204014E6
:1003740085452145EF20C013E1774C08FC82130525
:1003840004C0E1473ECE26CCEF10906D2800EF204C
:10039400C02583A7818037470F0013070724B3D7ED
:1003A400E702373401402C00130504C02315010073
:1003B40023080100FD177C849307703E3EC6EF209E
:1003C400E0120810EF20C023C167938707063ED0D0
:1003D400B707F40191073ED2B707080089073ED456
:1003E4000C1093070010130504C03ED6EF20A0168E
:1003F400130504C08145EF20C028130504C08545BA
:10040400EF20A023130504C08545EF20E025130544
:1004140004C08545EF2040258145130504C0EF2025
:100424004020456105BB6301050E638F050CEFF2A7
:100434003FD02E84AA8481452285C12485452DC9B7
:1004440037150140130505C0EF10B07085452285AE
:100454006D2489452DC537150140130505C0EF10DE
:10046400506F89452285512CA1452DC13715014076
:10047400130505C0EF10F06D228545249305001087
:1004840029CD3715014013050580EF10906C2285A6
:1004940041241384218229E91C2091CB3735014062
:1004A4008145130505C0EF20C017230004005DB18A
:1004B40037150140130505C0EF10F06A41BF371529
:1004C4000140130505C0EF10106A61BF37150140E4
:1004D400130505C0EF10306945B737150140130502
:1004E4000580EF10506865B71C2003D9440093843D
:1004F400018281C79E20E38C27FB4A858933854787
:100504001CA02390240165B7828029C1A1C193074F
:10051400C0031EB5B7071E00F9071CC1996793876E
:10052400871A5EA189471CC55CC51CC95CC91CCD62
:100534005CCD1CD15CD19307800C23A0050023A2C1
:10054400050023840500BEA523A60500828009CDED
:10055400854791C90567130707E1AE876373B70041
:10056400BA87C207C1831EA1828009CD854791C97C
:100574000567130707E1AE876373B700BA87C2073D
:10058400C1833EA1828005C52D67130787FCAE8712
:100594006375B700ED77938787FC9396070111671E
:1005A400C1821307076563F3E600BA875EA1828000
:1005B40005C59DC181470546930600023387F500B2
:1005C40018431308F7FF636606013308F500232474
:1005D400E8009107E394D7FE828019C10A21828042
:1005E4000145828019C12A2182800145828019C176
:1005F4004A2182800145828011CD89CD814713072C
:100604000002B306F5009046B386F500910790C248
:10061400E399E7FE828031CDA9CDDE2194410547DF
:100624008507C207C183DEA16398E6021A2119C7B0
:1006340063E6E70023A00500239205009C410547DB
:100644006392E7025849631FF700F8A51C4D05475C
:10065400639FE700FCB582803621EDD2E3E0D7FE4C
:1006640098C1D9BF238705000547E381E7FEA38727
:100674000500828051C1C9C198418547631BF700B9
:100684001C45638FE7005445638CE6001449638975
:10069400E600239305002384050023960500828049
:1006A400BA2505E3FD1793B71700FCA15C45FD17B8
:1006B40093B71700FCB11C49FD1793B717009CA50D
:1006C4008280DE253E96420641826374E600D2A50E
:1006D400828023960500938765002105A50585463C
:1006E400104101476315D60098231347170098A3B8
:1006F40085071105E396B7FE8280AA8701C90947D9
:1007040001456366B700AE97E82382800145828085
:1007140019C1682582800145828019C168358280AB
:1007240001458280854663E6B60001458280014525
:1007340015B4EFF2FF9F1C311821F915A207D98FC8
:10074400C207C18713F73700C207C1838983C20573
:1007540038A21EA213042500C18125CB6306D7004D
:1007640089476303F7000D4713180701135808015D
:10077400E3EF05FB81478144B306F500B422939867
:1007840037008507B3961601D58C93F6F70FE3E58A
:10079400E6FEB3850541C2053A94C181E3E995F8C3
:1007A40044C21307000493078600268663749700E7
:1007B400130600042A89A2853E85EF20E013330541
:1007C4002441269542054181A5B79144C1BF11E555
:1007D400014779A001473A85B5BA7DDA0548E3793E
:1007E400B8FE1E2238228A070D8BD98FC207C18713
:1007F4001CA1C207C183A1831CB13822544215E74E
:1008040091470947E396F6FC03288600E30208FCB7
:10081400EFF21F923384E600E3EE85FA3A953686CA
:10082400C285EF20600D22877DB7854763070701E6
:1008340009488947630307018D4713872700E3E9C4
:10084400E5F834A10548638C070113D88600A30199
:1008540005010D486395070193D706015CA1CDF608
:100864003A858280EFF23F8B09E5814426856FF05B
:10087400DF8DE5DEBD47E3EAC7FE9547E3F7E7FE14
:100884003A8AB2842E899949AA85194636853684CE
:10089400EF208006E30B3AFD314693974400B3847E
:1008A400C4027CA09D49CA94631E990093842900C4
:1008B400E36D9AFA2285CE85893A4E9408A0218167
:1008C40008B06DB74A86B3053A41330534010137A0
:1008D400310941DDAA99C9BF814705CD1DCA254704
:1008E4006379D702EFF2DF843284AE841946AA8595
:1008F4002285EF20600095477CA064B0A145228545
:10090400EFF0BF9008A4A947218108B43E856FF099
:100914007F843E858280014831C9A9CA21CBBD4864
:1009240063F6F804EFF22FFF3289AE841946AA85E4
:100934003A853A84B689EF10307C13761900939582
:100944001400D547D18D7CA06CB01946CE85130513
:100954008400EF10707AB9452285EFF01F8B68A4EC
:100964004148218168B442856FF02FFE4285828020
:10097400EFF26FFA09E5814426856FF00FFDE5DF9C
:10098400BD48E3EAE8FE91E27DF79548E3F508FF08
:10099400C28A328AAE89194BAA8519463E853E849D
:1009A400BA843689EF105075E3876AFD9397440043
:1009B40093E757007CA09D47E38FFAFA3147B3844D
:1009C400E4029395190013761A00D18D6CB0A149F5
:1009D400CA94631F990093842900E3EE9AF8228550
:1009E400CE85EFF09F824E9408A0218108B069B7AC
:1009F4004A86B3853A4133053401D13B310925DDBB
:100A0400AA99C1BFEFF2CFF21306C0118145EFF0EE
:100A14002FF56FF02FF4EFF2AFF12A841946130586
:100A24002510EF10706D85472304F4106FF08FF2DA
:100A3400EFF28FED130101A62A840DCE03550510A4
:100A44001307F00F8147636BA70013070010098F8A
:100A540042074183BA876373E600B2879394070120
:100A6400C18026862295EF10306983570410A6971B
:100A74002310F410130B24103D4A930A8004835965
:100A84000410A54763E637011301015A6FF04FEBD9
:100A94001306C05981454800EFF08FEC1946A28532
:100AA4004800EF1070658347841091CB1946DA85AE
:100AB4004800EF10306201C58547230EF148034911
:100AC400640093573900935B490023052101858B0A
:100AD40013797900A30571015C86A30621016313D0
:100AE400090E9D4463844B0163932B09B389994098
:100AF400854763D23709B307940003C917009C23C1
:100B0400A685220922853369F900EFF00FF06314FA
:100B1400A9068904C204C180231F914893070010C9
:100B240063E997002686A2851305014AEF10D05C7D
:100B3400B9C08347C14989EF9C8605476384E71C94
:100B4400638A071A11476382E71C15476382E71C0F
:100B540003560410B30594002285058EEF10F0644B
:100B640083570410B38497402310941009BF03469D
:100B7400A1016370CA020356041093051400228570
:100B84007D16EF10906283570410FD172310F410A4
:100B9400FDB533065603B38599405C00C205C18197
:100BA4003305940061063E96B53E71D58347A10195
:100BB400AA94C20485070509C180230DF1001379A5
:100BC400F90F1DB7054C631989017C30230C2101F1
:100BD400A30CF100A14419BF91476310F9087C30BC
:100BE4002307810113D71700858B2308F100D887C9
:100BF40099476311F702B547A1441946E3F837EF63
:100C04009305840013052101EF10104FB944A30884
:100C14008101E9BDE3804BFD0149A144E3882BED4B
:100C24000346A101E369CAF433065603B385994028
:100C34005C00C205C1813305940061063E96DD3433
:100C44001DD98347A101AA94C20485070509C1805F
:100C5400230DF1001379F90FD1B79547E31DF9F08E
:100C6400138779FF420741837C3063158701230C86
:100C7400E100B9BF93D617001946639CC6009D4492
:100C840063F7E60213071060858B78872308F10069
:100C940085BF1387C6F91377F70F9D446369EC008A
:100CA400858B23078101D4872308F100A144E38FB6
:100CB4004BE30149E38C2BE30346A101E36DCAEA4C
:100CC40033065603B38599405C00C205C1813305E0
:100CD400940061063E96B934E30F05E88347A10109
:100CE400AA94C20485070509C180230DF100137974
:100CF400F90FC9B78327C410E38C07E44C0022859D
:100D04008297B9B583270411C5BF83274411EDB772
:100D140083278411D5B7EFF2AFC103A481EA5571DB
:100D240081457D14138581EA13341400F93219C105
:100D3400136424008545138581EAC13219C1136403
:100D440044008945138581EA4D3A19C1136484002E
:100D5400138581EA753A19C113640401138581EA84
:100D64006D3A19C11364040240801385C1E7EFF0A2
:100D74001F8868821385C1E7EFF03F866884138576
:100D8400C1E7EFF03F86688693848184DC4C54008D
:100D940036D43EC891671387078093862780F882EC
:100DA4000547230BE1002316D10213871780340073
:100DB4002310E10236DA0947938637809387478008
:100DC4003AD23AD83ADE2312F10478009147054426
:100DD400231CD102BAC0BEC4130700081C0894081F
:100DE40015464C081385818422CC0ACE2301810246
:100DF40023078102230D810223030104BEC69D340F
:100E04002A8915C193150501C1818808A123374595
:100E14000000CA851305C50780C823AA04002386D9
:100E24000400EF10F03C69616FF0CFB2EFF24FB005
:100E3400AA8413064002814513858184EFF04FB2E2
:100E440099C41946A68513858184EF10F02A13846A
:100E540081849307803E1CCC6FF0CFAF938681844E
:100E6400D84E938781840507D8CE83D641EA99E288
:100E74009306C003984705076374D70098C7828018
:100E8400054723A40700D8A7828093878184944BC5
:100E940005476399E602D84B3A95984FC8CB6363EC
:100EA400E502EFF2EFA88C53374500001305050562
:100EB400850523A8070023AA07008CD3EF1050331D
:100EC4006FF04FA9828093878184984B01EBDC27D4
:100ED40091C7EFF2EFA581356FF0CFA7828093879A
:100EE4008184984B23A4070011E7EFF26FA4253502
:100EF4006FF04FA60547D8A782801DC1EFF24FA31C
:100F0400AA8513848184194613858184EF10D01E29
:100F140023280400232A0400230604006FF08FA36F
:100F2400828031C55C29A1C793878184944B05478E
:100F3400639FE602EFF2CF9F23AA07004C3923A850
:100F440007001307F00F638DE50090533745000049
:100F54001305C5FF050690D3EF1090296FF08F9FFE
:100F64003745000013054503EF10D039C5BF828013
:100F740023140500231305000CC152A123260500E8
:100F840082807A211E254207C2074183C183636997
:100F9400F7004A213E957D15198D420541818280D5
:100FA4001385F7FFD5BF7E211A25C2074207C183E7
:100FB400418363E7E7003385E7404205418182804E
:100FC4004A213E95198DD5BFEFF28F9641112EC659
:100FD40032C42A847D372246B2456376C5005C4418
:100FE4002A8685075CC47E205A20C207C1831D8FD0
:100FF400BA86420741836373E600B286C206C182A1
:101004000147131507014181636AD5025A20B69737
:101014000145B3E7E7023307D6404207418313187B
:101024000501135808016366E802BA975A2032850D
:10103400B3E7E7027EA041016FF0CF913385E5006D
:101044000348050008403E953A952300050105072D
:101054004DBF3388A6002E98834808000328040057
:101064003E982A9823001801050555BFEFF24F8CCE
:1010740041112EC632C42A843D372246B2453288F5
:101084006363A6002A881E245A2013150801C20788
:10109400C1831D8FBA864207418141836373E50092
:1010A400C286C206C18201471316070141826369E1
:1010B400D6025A20B6970146B3E7E7023307D54074
:1010C4004207418313180601135808016365E802B7
:1010D400BA975A20B3E7E7021EA441016FF08F8745
:1010E40010403E963A96034806003386E50005070D
:1010F4002300060155BF032804003E983298834814
:1011040008003388C6002E982300180105065DBF29
:10111400EFF20F82011185450945EF10403B83A78B
:101124008180096793060771B3D7D702370400405B
:101134001307F7704C08130504403ACC231B010035
:10114400FD17FC82EF10803A0546130504408545DF
:10115400EF100050130504408545EF10804C854581
:101164000545EF10C03683A7818061671307076ABE
:10117400B3D7E7024C0837050040231B01000544A0
:10118400FD17FC829307703E3ECCEF1020360546D7
:10119400854537050040EF10A04B854537050040D5
:1011A400EF1020489307C0027C86680085475C875F
:1011B40022C8EF10E01C9307D0027C8668008947A0
:1011C4005C8722C8EF10C01B05616FE0BFF84111B6
:1011D40022C637040040854513050440EF10C04B78
:1011E40009CD854513050440EF10804C938581EAB1
:1011F4001385C1E7EFF02FC29531324441017300EA
:101204002030411185453705004022C626C4EF1021
:10121400A0480DC5854537050040EF10604993850A
:1012240081EA29461385C1E7EFF0CFC42945B139D6
:10123400938581EA1385C1E7EFF0EF9E3244A2441F
:10124400410173002030EFE2BFEE5D718545154525
:10125400EF100026854537050200EF10402785452D
:101264000545EF1000238D473EC6371401409147D2
:101274007C842C00E147130504803EC8EF00507EB7
:10128400A1477C842C009147130504803EC8EF00DD
:10129400307DF16737440040938707203ECA4C08ED
:1012A400B7070C00130504403ECE02CC2310010204
:1012B400EF10C04013050440054693050004EF10E9
:1012C400A04D13050440054693054042EF106049C4
:1012D400130600409385C1A71385C1A65139B704ED
:1012E40002401385C40623920182EF0070689307BD
:1012F40044403ED29387C1863ED4930700203ED813
:10130400930700083EDC93070002BEC24C108567B9
:101314001385C406BEC402D602DA02DE82C082C6C7
:10132400EF00D06E1385C4068545EF00B071854586
:1013340013050440EF108041930760032312F10268
:10134400481085473ED423030102EF106003616116
:101354006FE05FE0EFE23FDCB7440040AA892E89EA
:1013640001449384044093170401C18363EE27016D
:101374003744004013040440930500042285EF1011
:1013840040437DD96FE07FDC930500082685EF108C
:1013940040427DD9B38789008C2326850504EF104C
:1013A400C040D1B7EFE2DFD82E86AA851385C1A647
:1013B40075396FE03FDA011122CE374400409305BE
:1013C40040421305044026CC4ACA4EC8EF10003FE1
:1013D40059C183570440370502401305C506C207A7
:1013E400C1837C863C868357444013040020C20793
:1013F400C1837C873C87EF00306693874182330545
:10140400A4409E23131905011359090193844182B1
:10141400636AF9048220330489404204418009C884
:101424008E209387C1862286BE951385C1A6693E08
:1014340023902401938781829843050798C3938757
:10144400C1829A236373870082A39389C1A603A7E9
:10145400C90023A8E1827244E2445249C2490561A9
:10146400730020309E201D8C4204418011C88E20C0
:101474009387C1862286BE951385C1A6EFF0DFB49B
:10148400630909004A869385C1861385C1A6EFF0D6
:10149400BFB34A944204418061BF01A0B707EFBEC5
:1014A40037E700E0938707083CC701A0EFE25FC875
:1014B40003D7A549F4291D71374600001306C662F7
:1014C400930500060A85EF108064374500008A857D
:1014D40013058564EF10C05125616FE0BFC7EFE2CB
:1014E4003FC541112A84AA8537050020C1460A86D2
:1014F40013050508EFF04FBE09CD93150501C18111
:101504000A85893D37450000A2851305056AEF1059
:10151400204E41016FE01FC4EFE29FC1DC355971D9
:10152400374400009DCFBC39374600001306465AA5
:101534003EC4BC2908083EC29C393EC083C805018C
:1015440003C8F500FC25D825B43593050006EF1033
:10155400005C0C0813058464EF10804965616FE03A
:101564007FBFDC29F42989CF81EED43937460000C6
:101574001306465E930500060808EF104059D1BFD4
:1015840003D7A549374600001306466093050006B5
:101594000808EF10C05775BFDC2985CFEFE25FB9AB
:1015A40039712E852E84EFF0DF97543837460000CA
:1015B4001306C664930500040A85EF1040553745A9
:1015C40000008A8513058564EF10804221616FE075
:1015D4007FB88280EFE2DFB50111AA8437050020CD
:1015E4001304050893060508E14738002686994543
:1015F40013050508EFF02FB20DC593150501C18140
:101604002800893B83485400034844003C30382078
:101614001430102037450000A68513058566EF10A9
:10162400203D05616FE01FB3F1779387B77F3E9547
:1016340042054181914763E2A70AEFE27FAF9167D8
:101644009387070A0A053E951C410111B2842E8432
:1016540082871385C1E71E351EA291679387578041
:101664001EA085473CA089475CC005A88A851385D0
:10167400C1E7EFE07FF88A870147A1468C433386B0
:10168400E40005070CA29107E31AD7FE916793873C
:1016940067801EA085473CA058C004C40545056169
:1016A4006FE05FAB1385C1E7EFE03FF391678AA07A
:1016B4009387778075B71385C1E7EFE0BFF2916731
:1016C4008AA09387878069BF1385C1E7EFE03FF263
:1016D40091678AA09387978061B701458280EFE282
:1016E4003FA2FC29D82503C8D500B4352571374657
:1016F40000002E841306060F930500060811EF1050
:101704000041374500000C1113058564EF10402E8D
:101714003C3405476394E702402413341400330433
:1017240080401374F40F22855D3B9307F00F63141C
:10173400F400EFF0CFFA1D616FE05FA01947639DDD
:10174400E7065C240145BDC75C3491EB37450000D6
:1017540013054512EF10003B01455133E9BF37092A
:1017640000209309E4001946CE8513050908930463
:101774000908EF10201615CD1946CE851305090862
:10178400EF10801793050908138581EBEFF0AFA8DC
:1017940013050908EFF06FF603C85400DC20B830D5
:1017A400B42090308C203745000013050515EF1048
:1017B40020244824053541B7130740066391E748C0
:1017C4005C24639507123747083813077780B747B7
:1017D40006383ACA74301167130797809387578085
:1017E400F8843EC83D47638BE6046C28A1C96104B4
:1017F400814481471305A1011548162018081223B6
:101804006313D60C700801476316970A638B0401AF
:101814001387140010138604B294239ED4E69374A1
:10182400F70F850793F7F70F13048404E397F5FC88
:1018340095E0374500001305451829BF3ECEB7474C
:101844000838938777803ED09167938797802312D7
:10185400F10295449309C10101440149314AB30598
:1018640044037C181316340003D509003E96DC109B
:10187400BE955D3B01C505041374F40F0509137986
:10188400F90F8909E36D99FC370500201308000A54
:101894001C022287D410014693054006130505084F
:1018A400EFF00F8D0DE5374500001305C51AEF1055
:1018B400602551B509068358E6FFE384D8F6050789
:1018C4001377F70F91B70907E31BA7F299BF931595
:1018D4000501C1810802EFF0FFA73745000001466A
:1018E400A2851305C51CEF10A010B1B57C2895EF97
:1018F400374500001305C51EEF10C02050241308FF
:1019040000021C020147814693054006370500206A
:1019140013050508EFF0CF85E30F05E093150501E6
:10192400C1810802EFF01FA339B59387C1E703D83B
:1019340087021385C1E7014C42C6EFE01FCAAA8D96
:101944001385C1E7EFE01FCAAA891385C1E7EFE059
:101954001FCA0563834F64013248717E916E13037D
:1019640003E12A8D02CE02D002D202D402D602D8DA
:1019740002DA02DC930784018146814B014B814AE0
:10198400014A0149938CC1E7130EBE7F9142938EA5
:101994004E0B05458948214F9A83639DF613630FC7
:1019A400091663040A0023940C0363870A00EE8576
:1019B4001385C1E7EFE0BFB963070B00CE8513853C
:1019C400C1E7EFE09FBA63870B00EA851385C1E79F
:1019D400EFE07FBB63080C481385C1E76C08EFE0B8
:1019E4003FBD814463050A0283D78C028544231ECC
:1019F400F1029167938757802312F10685472303E9
:101A0400F1068947BED47C18BED663040C02B145E6
:101A1400B385B4027C18139634003E961165DC102D
:101A240013056580BE95EFF03FC001C5850493F4AE
:101A3400F40F63840A02B145B385B4027C1813968B
:101A440034003E961165DC1013057580BE95EFF0E9
:101A5400BFBD01C5850493F4F40F63040B02B145C3
:101A6400B385B4027C18139634003E961165DC10DD
:101A740013058580BE95EFF03FBB01C5850493F443
:101A8400F40F63840B02B145B385B4027C1813963A
:101A940034003E961165DC1013059580BE95EFF079
:101AA400BFB801C5850493F4F40F50243705002012
:101AB4001308000A1C022687D41093054006130558
:101AC4000508EFE0FFEA631E05143745000013051F
:101AD400453DF1BB8E233387C5014207418363EB48
:101AE400E2120A0776971843B023CC4302876314A3
:101AF400A60063891501374500001305C520EF00D2
:101B0400306F21A8983790272207518F21E7374556
:101B1400000013058524EF00F07E054950243705A5
:101B24000020130800021C02014781469305400669
:101B340013050508EFE0DFE319C593150501C1811D
:101B44000802EFF03F81E31809BE37450000130592
:101B5400453AB1BB3A886373E3001E8842081358C0
:101B64000801054A850693F6F60F9387870405490D
:101B74002DB56314A6006387E501374500001305FE
:101B84004527B5BF138987FE7808814503460902B6
:101B940063F7C800374500001305C52A8DB710C385
:101BA400850505091107E393E5FF054C65BF63143B
:101BB400A60063871501374500001305852D81B7FD
:101BC40083CD97008C27854AA20DB3EDBD0059BF84
:101BD4006314A6006387150137450000130505311A
:101BE40039BF83C997009827054BA209B3E9E900D7
:101BF40095BF6314A60063871501374500001305DC
:101C04008534F5BD03CD97009827854B220D336DA0
:101C1400ED0089BF374500001305C537EF00505D5F
:101C2400F5BD93150501C1810802EFF0AFF2374508
:101C34000000A6851305853FEF00905BEDBC1307FC
:101C44005006E39AE7AE5C24D5EF7830BD476301D4
:101C5400F704742895CE11676104814713076780E0
:101C640013048404035684FB6304E602850793F794
:101C7400F70FE397F6FE3745000013058557EF008D
:101C84007068130800021C0201478146014649A8F6
:101C94000C021385C1E7EFE03F96180281477418E0
:101CA40021460843B385F600850788A11107E39A06
:101CB400C7FE1167130767802312E106370500206A
:101CC40005472303E106BED4B6D6130800061C025A
:101CD4000547D41001469305500613050508EFE0A7
:101CE4003FC911E53745000013050542C9B69315F0
:101CF4000501C1810802EFF0EFE537450000130547
:101D0400854475B67C2885E33745000013054546B0
:101D1400EF00505F5024130800021C020147814663
:101D240093055006E5B6CC101385C1E7EFE0DF8CD0
:101D3400034364019166A287014701499386668043
:101D4400054EA148894E63186706630F0906CC1037
:101D54001385C1E7EFE0DF850C021385C1E7EFE0EF
:101D6400BF8918028147740821460843B385F600E9
:101D7400850788A11107E39AC7FE116713076780D7
:101D84005024231EE102370500200547230FE102FA
:101D9400BEC0B6C2130800061C020547741893059A
:101DA400500613050508EFE0BFBC55E137450000B8
:101DB40013054553EDBC8E2F6384D50437450000CD
:101DC40013058548EF00D04250243705002013083E
:101DD40000021C02014781469305500613050508BD
:101DE400EFE01FB919C593150501C1810802EFF091
:101DF4006FD6E3120994374500001305455045BCDE
:101E0400B02FCC4F6314C601638A15013745000017
:101E14001305454BEF00D03D05497DB7C8103E88FA
:101E240081450346080263F7CE00374500001305D9
:101E3400454ECDB710C1850505081105E39315FF7F
:101E440005071377F70F938787040549EDBD9315AD
:101E54000501C1810802EFF0EFCF374500001305FB
:101E64008555B1B48144E3060ABCBDBEEFE24FAC74
:101E7400411105451923CD22EF0010187165130592
:101E84000520EF00D0199307800873A00780EFF0B6
:101E94008FBB85452145292DE177371401407C828C
:101EA4008D47130504C03EC44C00C1473EC62313EE
:101EB40001007D26A165130504C06129138581EB0A
:101EC400EFE05FB43709002093050908138581EB1F
:101ED400EFE07FB413050908EFE05FF5B7170000E2
:101EE400938481EB9387074B23A6F410B717000064
:101EF4009387C75923A8F410B71700009387276E58
:101F040023AAF410B71700009387C75123ACF41029
:101F14001385C1E7938581EAEFE02FDFEFE00FBC83
:101F2400EFF00F9FB7450000374500009385850CFF
:101F34001305050DEF00D02B1385C1E7A945EFE08C
:101F44000FE11385C1E7A945EFE02FE293050010E7
:101F5400138541FDEFF00FC52A8619C5938541FD10
:101F6400138581EBEFE0DFACEFE0FFF5C5B7B71702
:101F740002409843B706FFF041111367170098C356
:101F8400D84337060200758FD8C39843B706F7FEC7
:101F9400FD16758F98C39843B706FCFFFD16758F21
:101FA40098C3D843B70601FFFD16758FD8C337070A
:101FB4009F0098C702C402C69843C166558F98C350
:101FC400B716024005679C42F18F3EC6A2478507BB
:101FD4003EC4B24781E7A247E397E7FEB717024042
:101FE4009C431397E7006357070685473EC632476D
:101FF4008547631FF704B7170240D843B706C1FFEC
:10200400FD16D8C3D843D8C3D84313670740D8C3F1
:10201400D843758FD8C3D843B7062900558FD8C382
:102024009843B7060001558F98C3984393166700E9
:10203400E3DD06FED843B7160240719BD8C3D843EC
:1020440013672700D8C32147DC42B18BE39EE7FE28
:102054004101828002C661BFB7160240DC421146CC
:10206400B18B138781806385C70021466388C702CB
:10207400B7177A00938707201CC3B7170240DC43C5
:10208400918393F6F700B707002093870700B6976C
:1020940094231C43B3D7D7001CC38280DC42D442B0
:1020A4004166C983BD8BF18E890745466393C7009A
:1020B400C94781EEB746024083A60680C18A89CE0D
:1020C400B7167A009386062021A8B7160240D44298
:1020D4001396E600E35606FEB7163D009386069077
:1020E400B387D70251BF97E1FF1F938161791731FD
:1020F40000201301E1F0172500001305656697E53C
:10210400FF1F9385E5EF1386018263FAC5008322DE
:10211400050023A0550011059105E3EAC5FE1385CA
:1021240001829385810D6377B50023200500110595
:10213400E36DB5FEFD42739002BC8D427390428004
:10214400B7220000938282887390023097E2FFFFE7
:10215400938242EB93E2320073905230EFF03FE10E
:10216400970200009382C2D073901234730020301F
:102174001C4141677917F98F1CC1232005002322D4
:10218400050023240500B707024023260500138712
:1021940087006316E500D8431367F70001A8138787
:1021A400C7016317E500D8431367070FD8C3B1A865
:1021B400138707036318E500D8438566938606F002
:1021C400558FEDB7138747046315E500D843BD6603
:1021D400C5BF138787056316E500D843B7060F000C
:1021E400C5B71387C7066316E500D843B706F000E2
:1021F400C1BF138707086316E500D843B706000F6D
:10220400C1B713874709E308E5F882801C41617769
:102214003D0794517D8F9C45D58F9449D58FD449E2
:10222400D58F944DD58FD44DD58FD451D58F94550A
:10223400D58FD98F1CC1DC455CC19C411CC5DC41D8
:102244005CC582801C4189C593E717001CC182804C
:1022540041677917F98FDDBF48414205418182808A
:102264009C4513F7070113F8F70001C7D8413368F9
:10227400E80037270240145B3707000F758F4DEBDA
:102284008546238AD182371701406315E5009A21D8
:1022940035839AA18E2113F7F50F39C3184181466E
:1022A400854E3D4F930F800293028004214E339656
:1022B400DE00B3F8C50063111603939826003313A8
:1022C4001F011343F3FF3377E300B318180133E717
:1022D400E8006397F70750C98506E39AC6FD18C15D
:1022E4001307F00F6375B70454412146854E3D4FE3
:1022F400930F800293028004414EB398CE0033F7CB
:1023040015016392E8021317260001173313EF0037
:102314001343F3FFB376D3003317E800D98E6395E4
:10232400F703232A15010506E319C6FD54C182806B
:1023340037170140E310E5F603C7418321DF81BF6E
:10234400E39C57F810C949BFE39F57FC23281501A4
:10235400D9BFB71701406316F50083C7418391C302
:10236400B5810CC98280B71701406316F50083C795
:10237400418391C3B5814CC9828023ACA182828000
:1023840003A78183854714216310F7021C31639CE2
:10239400E7023C21960793E707F837E700E093F755
:1023A400F70F36972300F740054793D756003317A6
:1023B400D700544189CE938707048A07B7E600E023
:1023C400B69798C38280EDF33C219607F9B79387BB
:1023D4000706E5B7371702405C439146B18B638526
:1023E400D700A1466382D706B7177A0093870720E0
:1023F4001CC1371602405C4237070020130707014F
:102404009183BD8BBA9794231C41B3D7D7005CC189
:102414005442A1829D8ABA969422B3D6D70014C599
:102424005442AD829D8A36971823B3D7E7005CC522
:1024340058423983937637001387C180369718231F
:10244400B3D7E7021CC982805C435843C166C98381
:10245400BD8B758F8907C5466393D700C94701EFC4
:102464003747024003270780418B09CF37177A008B
:102474001307072021A83717024058439316E70093
:10248400E3D606FE37173D0013070790B387E7022C
:1024940085B799C5371702405C4B5D8D48CB828068
:1024A400B7170240D84B1345F5FF798DC8CB82800E
:1024B40099C5371702401C4F5D8D08CF8280B7172E
:1024C4000240984F1345F5FF798D88CF828099C5D6
:1024D400371702405C4F5D8D48CF8280B7170240AA
:1024E400D84F1345F5FF798DC8CF82801E21373729
:1024F4000140130707C0C207C1836304E50237071D
:1025040000406300E50213070740630CE50037173A
:102514000040930607806306D500130707C06316BF
:10252400E500BA2193F7F7F8D98FFA2193F7F7CF9B
:10253400C207C183D98F1EA1DE215EB59E211EB5BF
:10254400B7370140938707C06314F5009C251EB973
:1025540085475EA982801E3103D88500C207C183E6
:1025640093F7F7EFC207C1831EB11E3156215A2DCE
:10257400C207139606014207962141831377C7F8D1
:10258400558FB621C18393F7F7DFB3E60601A206A0
:10259400D58FB7360140C207938606C04182C183F6
:1025A400631FD502FD769386F67FF58FB62503D893
:1025B400C500A206D58FD621C207C183A20693F710
:1025C400F7BFD58FF576FD16F18EF225C207C183CC
:1025D400336606011206D18E13960601418252A17A
:1025E4005AADFA215ABD1EB18280FD575EA1231057
:1025F4000500231305002311050023040500828030
:1026040023100500231105002312050023130500E0
:1026140023140500231505002316050023170500C0
:1026240082801E2189C593E717001EA18280C207FC
:10263400C183F99BC207C183CDBF8357450491C5AC
:102644002167D98F2312F5048280C607C583DDBFB5
:102654005E2501C6DD8D4EA5828093C5F5FFFD8DF7
:10266400DDBF0EB552A982801E2189C593E70708F4
:102674001EA18280C207C18393F7F7F7C207C18303
:10268400C5BF5E2DC207C183DD9BDD8D4EAD82804B
:102694004EB582804EBD82801E294A25ED8F4205AB
:1026A400418189C76D8D3335A000828001458280C8
:1026B40093C5F5FFC205C1810EA98280EFD25FA741
:1026C4001629F577FD17F58FF621DA257971D58F5F
:1026D4001EA95625FD779387379FF58FD6212A8427
:1026E4002EC6D58F9625D58FB625D58F5EA55E29A6
:1026F400C207C18393F7F7CFD98F5EA96808EFF0BB
:102704007FCDB747014093870780B245631EF4022B
:10271400A2576547B387E7029841930640060A0724
:10272400B3D7E70233D7D702B3F7D702120792071A
:1027340093872703B3D7D702BD8BD98FC207C18331
:102744001EA445616FD01FA19257E1B791C55E25C4
:102754000967D98F5EA582805A25F977FD17F98F0D
:10276400D5BF13F7F50F85471583B395B7006319E4
:10277400F7009307C500984301CED98D8CC382809E
:10278400894693074501E318D7FE93070501E5B78A
:1027940093C5F5FFF98DDDB75E2901C6DD8D4EA920
:1027A400828093C5F5FFFD8DDDBF93F5F51F4EA126
:1027B40082800A216D8D3335A000828013F7F50FD6
:1027C40085461583B397B6006311D7025A25F98F4E
:1027D4001A2101454207418381CB0545A181B315E7
:1027E400B5006D8F3335E000828089466314D700CD
:1027F4001A29F1BF5A29E1BF83A7818037177A00CC
:1028040013070720B3D7E70293F7F70F238FF1825B
:102814001307803EB387E702239EF1828280EFD2C2
:102824003F912A841165011185451105EFF05FC8B8
:10283400930700207C82371501408D473EC44C002D
:10284400E147130505803EC6EFF09FA122C8374437
:102854000140B70708000C08130504803ECC02CAE7
:10286400231E0100A13D854513050480C53505617E
:102874006FD05F8EEFD23F8AB7440140AE89328970
:10288400014493840480634524014A856FD0FF8BFF
:10289400930500042685313F65DDB3878900838570
:1028A400070026850504C205C1810137E9BF1387E6
:1028B40001811C439386810D3E95636BD500B75609
:1028C40000209386068063E5A60008C33E858280C7
:1028D400FD57EDBF01476314E60001458280B3074D
:1028E400E5000507B386E5009C2383C6F6FFE38471
:1028F400D7FE3385D7408280B3C7A5008D8B3307BD
:10290400C50081E78D4763EDC700AA87637EE508AC
:10291400942185078505A38FD7FEE3EBE7FE82802C
:1029240093763500AA8789CA942185078505A38FE4
:10293400D7FE93F63700C5BF9376C7FF138606FE0E
:1029440063F0C70683A3050083A2450083AF850017
:1029540003AFC50083AE050103AE450103A38501A2
:1029640083A8C5019385450223A0770003A8C5FF6A
:1029740023A2570023A4F70123A6E70123A8D70124
:1029840023AAC70123AC670023AE1701938747022C
:1029940023AE07FF75B790419107910523AEC7FE9B
:1029A400E3EBD7FEE3E6E7F6828063F1A504B386A2
:1029B400C500637DD5029345F6FF8147FD176393F8
:1029C400F50082803387F600034807003387C70089
:1029D4002A9723000701DDB73387F5001423330753
:1029E400F500850714A3E319F6FE82808147E5BF4D
:1029F40039713EDA2ED232D436D63AD842DC46DEAB
:102A04009387418122CC804326CA06CEAA8409C476
:102A14001C4C99E322859D230C4454102686228560
:102A240036C6EF00704EF2406244D2442161828087
:102A3400011126CA4AC806CE22CC4EC652C4AA8464
:102A44002E8901C51C4D91E3152B9C4C804499E3C0
:102A540026852D23972700009387C7C8631BF4029C
:102A6400C0405E24A18BB1C71C48A1C7FD59294AA7
:102A74001C4483450900FD17B1E91CC463DD070646
:102A84002286A9452685D528FD576308F5022945E0
:102A940035A0972700009387E7C66314F4008044A9
:102AA400C9B7972700009387E7C1E31CF4FAC04431
:102AB4004DBFA2852685412255D97D55F2406244F9
:102AC400D2444249B249224A056182801CC40509A4
:102AD40063D70700184C63CAE700638845011C40AC
:102AE4001387170018C08CA361B72286268571202E
:102AF400E31035F9D9B71C401387170018C02947CC
:102B040098A371B793874181AA85884315B7357116
:102B14003ECBA6DA36C73AC942CD46CF9387418128
:102B240086DEA2DC844363DB05009307B0089CC007
:102B34007D55F6506654D6540D61828093078020EB
:102B4400FC822AC42ACC814799C19387F5FF3EC8E9
:102B54003ECE7401FD572E8426852C00FC8336C29C
:102B6400EF00700DFD576355F5009307B0089CC046
:102B740069D0A247238007006DBF011122CC26CA69
:102B84004AC806CE4EC6AA842E89328401C51C4D7D
:102B940091E3ED26972700009387C7B46317F406E3
:102BA400C0401C4C1CC45E24A18BC1C31C48B5CFBF
:102BB4001C4808409379F90F1379F90F1D8D5C486F
:102BC4006346F500A2852685692C25E51C44050588
:102BD400FD171CC41C401387170018C0238037013D
:102BE4005C486388A7005E24858B81CBA947631664
:102BF400F900A2852685B5240DEDF24062444A858C
:102C0400D2444249B24905618280972700009387E4
:102C140067AF6314F400804469B797270000938773
:102C240067AAE310F4F8C044ADBFA285268521202D
:102C340041D17D59D9B741119387418126C284433B
:102C440022C44AC006C62A892E8489C49C4C99E3AE
:102C540026852D26972700009387C7A8631BF402B7
:102C6400C0400317C40093170701C18393F687007C
:102C7400ADEA93F6070195EEA5472320F900136703
:102C840007045AA47D55B2402244924402494101AA
:102C94008280972700009387E7A66314F40080449A
:102CA400C9B7972700009387E7A1E31CF4FAC0444F
:102CB4004DBF918B9DC34C5889C9930744046384C9
:102CC400F5004A853123232A04025E2423220400CA
:102CD40093F7B7FD5EA41C481CC05E2493E78700ED
:102CE4005EA41C4899EB5E241307002093F7072881
:102CF4006385E700A2854A85A1215E2413F71700A6
:102D04001DC35C4823240400B307F0401CCC1C48BA
:102D14000145B5FB8317C40013F707082DD793E7C4
:102D240007045EA485B7898B014791E3584818C40A
:102D3400F9BFDE25011122CC26CA06CE4AC84EC6EA
:102D440013F78700AA842E8479EBD841634DE00001
:102D5400B841634AE0000145F2406244D24442492A
:102D6400B2490561828058547DD703A90400939623
:102D7400370123A0040063DB060670485E24918BB0
:102D840099C75C401D8E5C5899C33C401D8E5C54B1
:102D94000C50814626858297FD575A24631DF50001
:102DA4009440F54763E8D706B70740208507B3D7B3
:102DB400D700858BA5C31C48232204001CC093178D
:102DC400370163D80700FD576314F5009C4091E375
:102DD40068C84C5823A02401BDDD930744046384D0
:102DE400F5002685F526232A0402B5B70C500146C2
:102DF400854626850297FD572A86E311F5F89C40FF
:102E0400B5DF75476385E70059476393E70423A05B
:102E1400240191B7136707045AA47D5535BF83A9CC
:102E24000501E38A09F203A905008D8B23A035016E
:102E340033093941014791E3D84918C4E35D20F1CE
:102E44001C540C50CA864E86268582976347A00080
:102E54005E2493E707045EA4C9B7AA993309A9407D
:102E6400F1BF9C49B9CF011122CC06CE2A8411C5E9
:102E74001C4D81E72EC61922B2459727000093877F
:102E84006786639BF5004C408397C50095C72285F0
:102E94006244F240056171BD9727000093878786DD
:102EA4006394F5000C44CDB797270000938787817E
:102EB400E39CF5FC4C44C9BFF24062440145056102
:102EC400828001458280411122C406C62A844EA50F
:102ED40072A52320050023220500232405002322B4
:102EE400050623280500232A0500232C0500214676
:102EF40081451305C505EFD0AFA69717000093874A
:102F0400C7E65CD0971700009387E7E81CD49717AF
:102F140000009387C7EC5CD497170000938727EFD2
:102F240000D01CD8B24022444101828097050000A1
:102F3400938565F3A9A2411126C2130680069384E2
:102F4400F5FFB384C4024AC02E8922C406C6938501
:102F540044071D262A8401CD2320050023222501B0
:102F6400310508C4138684068145EFD06F9F2285FE
:102F7400B240224492440249410182801C4DADE397
:102F8400411106C622C497070000938767FA1CD52F
:102F9400938781819C432324050423260504232845
:102FA40005046314F50085471CCD2A841D2848C0F8
:102FB4002285052808C422852D2048C4484001469E
:102FC4009145113708440546A545F53D4844094651
:102FD400C945D53D85471CCCB2402244410182807D
:102FE400828041119387818126C284434AC006C6E8
:102FF4009C4C22C42A8999E3268549379384840406
:103004008044DC40FD1763D607009C40B9CF844060
:10301400C5BF0317C40039E7C17785072322040617
:103024002320040023220400232404005CC4232856
:103034000400232A0400232C04002146814513059F
:10304400C405EFD0EF91232A0402232C0402232485
:103054000404232604042285B240224492440249F3
:10306400410182801304840671BF91454A85E1358C
:1030740088C051FDB1472320F9000144E9BF7971AB
:1030840022D44AD052CC56CA5AC85EC606D626D2D4
:103094004ECE2A8AAE8A130485040149054BFD5B92
:1030A40009ECB25022544A8592540259F249624AB8
:1030B400D24A424BB24B4561828004448329440086
:1030C400FD1963D409000040E1BFDE24637BFB00EB
:1030D4008397E40063877701A6855285829A3369D2
:1030E400A90093848406E9BF1971A6DAAE84839596
:1030F400E500A2DC86DE328463DB0500DE2423A047
:10310400060093F7070885E7930700401DA03008E1
:1031140036C6EF005055B246E34205FE7247BD671E
:10312400F98F7977BA9793B717009CC2F1BF9307C9
:1031340000041CC0F6506654D654014509618280CF
:10314400DE25011122CC06CE26CA4AC8898B2E84DC
:1031540089CF930774041CC01CC885475CC8F2401F
:103164006244D24442490561828074003000AA84DA
:10317400A53FA2452A892685012219E98317C4009F
:1031840013F7072069FFF19B93E727005EA4D1B7EB
:10319400970700009387C7D99CD45E2408C008C849
:1031A40093E707085EA4A2475CC8B24781CF8315A2
:1031B400E4002685EF00D04D11C55E24F19B93E712
:1031C40017005EA45E243369F9002316240141BF6D
:1031D400DDC183A7C5FF411122C406C626C21384DC
:1031E400C5FF63D307003E94AA84EF003051938750
:1031F40001849C4381EF2322040023A08184224480
:10320400B2402685924441016F00704F637EF40002
:1032140014403307D4006396E7009843DC433697A1
:1032240018C05CC0D9BFBA87D84319C3E37DE4FE94
:1032340094433386D700631F86001040B29694C32C
:103244003386D700E31DC7FA10435843B29694C39C
:10325400D8C375B76375C400B1479CC04DB710405F
:10326400B306C4006316D70014435843B29614C07F
:1032740058C0C0C369B78280011126CA938435003F
:10328400F19806CE22CC4AC84EC6A104B14763F5D4
:10329400F404B14463E4B4042A89EF00304693870C
:1032A400018498433A8429E4938741849C4399E7B1
:1032B40081454A85EF00902823A2A184A6854A85EA
:1032C400EF00D027FD5963193507B1472320F900D2
:1032D4004A85EF00D04229A0E3DE04FAB1471CC1BD
:1032E4000145F2406244D2444249B24905618280B8
:1032F4001C40858F63CF0702AD4663F6F6001CC001
:103304003E9404C031A05C406313870223A0F1847F
:103314004A85EF00D03E1305B40093074400619939
:103324003307F5405DDF3A94898F1CC05DBF5CC3F1
:10333400C5B72287404085BF130435007198E30266
:1033440085FCB305A4404A85EF00501FE31B35FB01
:10335400ADBF01114AC803A9850022CC52C45AC08A
:1033640006CE26CA4EC656C22E84328B368A63E9EE
:103374002609DE2513F7074851C304408C495848F1
:10338400AA8AB389B4408D44B384E4020947B3C420
:10339400E402138716004E9763F3E400BA8493F7AC
:1033A4000740BDCFA6855685EFF01FED2A891DE1A4
:1033B400B14723A0FA005E247D5593E707045EA479
:1033C400F2406244D2444249B249224A924A024BF0
:1033D400056182800C484E86EFF00FD25E2493F78D
:1033E400F7B793E707085EA42328240144C84E993D
:1033F400B38434412320240104C4528963732A0111
:10340400528908404A86DA85EFF02FDA1C440145D8
:10341400B38727411CC41C403E99232024014DB787
:1034240026865685EF00D02D2A895DFD0C485685E9
:10343400EFF01FDAB5BFDE25717126D34AD14ECF26
:1034440006D722D552CD56CB5AC95EC762C566C3CC
:1034540093F70708AA892E89B284B9C39C49A9E3C2
:103464009305000436C6EFF03FE12320A90023288A
:10347400A900B24615E1B14723A0F9007D55BA5021
:103484002A549A540A59FA496A4ADA4A4A4BBA4BB4
:103494002A4C9A4C4D61828093070004232AF90038
:1034A40093070002A30CF1029307000302DA230D31
:1034B400F10236CE930B5002971A0000938A8A26A3
:1034C400054C294B26841C2099C363997709B30CB6
:1034D4009440638E0C00E6862686CA854E85EFF0FE
:1034E4005FE7FD57630BF518D256E69636DA1C20D3
:1034F40063850718FD579304140002D002D63ED208
:1035040002D4A301010682DC8C2015465685EF0007
:10351400701D13841400825721E513F7070109C7AE
:1035240013070002A301E10613F7870009C7130775
:10353400B002A301E10694201307A002638AE60205
:10354400B257268481462546182093051400130794
:1035540007FD6372E6068DC63ED61DA00504A5B719
:10356400330555413315AC00C98F3ED0A28469BFE1
:10357400724793064700184336CE634707023AD68C
:1035840018209307E002631DF70418309307A00284
:10359400631BF702F2470904138747009C433ACEA2
:1035A40063C107023ED22DA83307E04093E727000A
:1035B4003AD63ED0F1B7B387670385462E84BA97CF
:1035C40061B7FD57C5B7050402D281468147254638
:1035D400182093051400130707FD6376E606F9F235
:1035E4000C200D461715000013054514EF00900F2D
:1035F40011CD97170000938767131D8D930700045F
:10360400B397A700025505045D8D2AD00C201946F6
:10361400171500001305C51193041400230CB102FF
:10362400EF00500C25C597D7FFFF9387679D95E75B
:103634000257F2471377071009CF91073ECED257AE
:10364400D2973EDA41B5B387670385462E84BA978D
:1036540041B79D07E19BA107D5B7780897060000FD
:10366400938666CF4A860C104E8597000000E700CB
:103674000000FD572A8AE314F5FC8357C9007D55E1
:1036840093F70704E39D07DE5255D5BB78089706E8
:103694000000938646CC4A860C104E85FD2ED1BF81
:1036A4001C46FD171CC663DA0700184E63C5E70005
:1036B400A9476394F5006FF04FCC1C422E85138705
:1036C400170018C28CA38280011122CC26CA4AC8D2
:1036D4004EC652C406CE2A89AE893284B304D600BB
:1036E4007D5A63149400014501A80C204E864A8536
:1036F400453F0504E31745FFF2406244D244424982
:10370400B249224A05618280357122CD26CB4AC94D
:103714004EC706CF52C556C35AC1DEDEE2DCE6DA36
:10372400AA89AE843289368409C51C4D99E3EFF029
:10373400FF84971700009387E7FA6397F40C83A438
:103744004900DE24A18BFDC39C48EDC3930700020E
:10375400A304F1029307000302D22305F10222C657
:10376400930B5002971A0000938ACAFB054C294B0D
:103774004A841C2099C3639E770DB30C2441638D46
:103784000C00E6864A86A6854E853D3FFD57630FAD
:10379400F51C9256E69636D21C206389071CFD5709
:1037A4001309140002C802CE3ECA02CCA3090104C4
:1037B40082D483450900154656852D271304190024
:1037C400C24751E913F7070109C713070002A30908
:1037D400E10413F7870009C71307B002A309E10442
:1037E400834609001307A002638FE606F2474A8462
:1037F40081462546182093051400130707FD6377B7
:10380400E60AB5CA3ECE85A897170000938787EFCE
:103814006395F40083A489002DB79717000093875C
:1038240067EAE390F4F283A4C90021BFA6854E851C
:10383400EFF06FC001DD7D55FA406A44DA444A492D
:10384400BA492A4A9A4A0A4BF65B665CD65C0D6111
:103854008280050439BF330555413315AC00C98F47
:103864003EC82289B9B7324793064700184336C683
:10387400634707023ACE18209307E002631DF7045A
:1038840018309307A002631BF702B2470904138799
:1038940047009C433AC663C107023ECA2DA83307BA
:1038A400E04093E727003ACE3EC8F1B7B3876703F9
:1038B40085462E84BA973DBFFD57C5B7050402CA95
:1038C400814681472546182093051400130707FDF8
:1038D4006374E606F9F20C200D4617150000130573
:1038E400E5E4092511CD97170000938727E41D8D82
:1038F40093070004B397A700424505045D8D2AC8C9
:103904000C20194617150000130585E2130914004D
:103914002304B102C12B35C197C7FFFF9387476EBC
:1039240095E74247B2471377071009CF91073EC680
:103934009257D2973ED22DBDB387670385462E8416
:10394400BA9751B79D07E19BA107D5B778009706B1
:1039540000009386A6D726860C084E8597000000A3
:10396400E7000000FD572A8AE314F5FCDE2493F7F0
:103974000704E39207EC1255C1B5780097060000DE
:103984009386C6D426860C084E85012AE1BF797138
:1039940056CA9C49BA8A984522D426D24ECE52CCD5
:1039A40006D64AD05AC85EC6AA892E84B284368AFC
:1039B40063D3E700BA879CC00347340419C385075F
:1039C4009CC01C4093F7070281C79C4089079CC098
:1039D4000329040013796900631A0900130B940185
:1039E400FD5B5C449840998F634CF9041C4083460A
:1039F400340493F70702B336D000A5EB130634045E
:103A0400D2854E85829AFD576303F5041C40114606
:103A14009840998B544481446397C700B384E6402B
:103A240063D3040081441C4418486354F700998FFD
:103A3400BE94014969047D5B63982405014509A886
:103A440085465A86D2854E85829A631E75017D55B8
:103A5400B250225492540259F249624AD24A424B19
:103A6400B24B456182800509ADBF3307D40013060C
:103A74000003A301C7040347540493871600A297C5
:103A84008906A381E7049DBF85462286D2854E859B
:103A9400829AE30E65FB050945B7797122D426D2D3
:103AA4004AD04ECE06D652CC56CA5AC8B689942DA0
:103AB400930790063289AA842E8413863504638D75
:103AC400F60263E2D706930780056386F61863ED72
:103AD400D700638E062093073004638EF60A930A98
:103AE40024042301D404C9A0930730066385F60A8D
:103AF40093074006E395F6FE1C40084393F6070837
:103B040093054500C5C61C410CC363D807001307C1
:103B1400D002B307F040A301E40497160000938693
:103B2400A6C1294765A8930700076382F61663E5D3
:103B3400D7029307E0066389F6189307F006E3902B
:103B4400F6FA0C401C4313F8050813854700630775
:103B5400080608C39C4385A893075007E383F6FE31
:103B6400930780076389F61293073007E399F6F603
:103B74001C43D04181459386470014C383AA0700A0
:103B840056858D2601C53305554148C05C401CC887
:103B9400A301040461A81C43930A240493864700E8
:103BA4009C4314C32301F4048547D5B793F6070453
:103BB4001C410CC3B9DAC207C18781BF93F5050460
:103BC40008C3C9D99E231307F0066387E60E971628
:103BD4000000938666B62947A30104044C400CC434
:103BE40063C5050008406D9908C099E3B28A89CD80
:103BF400B28AB3F5E702FD1AB6958C212380BA0088
:103C0400B3D5E70263F0E70CA147631EF7001C403D
:103C1400858B91CB58401C4863C7E700930700038A
:103C2400A38FFAFEFD1A3306564110C84E87CA8682
:103C34007000A2852685EFF09FD57D5A631D450B44
:103C44007D55B250225492540259F249624AD24AE2
:103C5400424B45618280A382D50497160000938667
:103C6400A6AD0C40084313F805081C411105630D6B
:103C7400080208C313F7150001C793E505020CC039
:103C84004147B9FB0C4093F5F5FD0CC0B1B79C411D
:103C940093E707029CC193078007A302F4049716D5
:103CA40000009386A6AA75BF13F8050408C3E303AE
:103CB40008FCC207C1837DBF971600009386C6A780
:103CC400214719BFAE8735B794411C43CC4913F83B
:103CD4000608138547006306080008C39C438CC389
:103CE40039A008C393F606049C43F5DA8EA323286F
:103CF4000400B28A25BF14485686CA85268582994F
:103D0400E30045F51C40898B8DE7B2474844E35AEC
:103D1400F5F23E853DB785465686CA852685829945
:103D2400E30065F3050A5C443247998FE345FAFEE4
:103D3400E9BF014A930A94017D5BF5B7411122C49E
:103D44002A842E8523AA010C06C6EFE05FB6FD5730
:103D54006317F5009387410D9C4391C31CC0B24087
:103D6400224441018280411122C42E848395E500BE
:103D740006C6DD22634905007C48AA977CC8B24088
:103D84002244410182805E247D777D17F98F5EA4F1
:103D9400FDB7DE25011122CC26CA4AC84EC606CE7E
:103DA40093F70710AA842E843289B68991C7839524
:103DB400E5008946014609225E247D777D17F98F47
:103DC4005EA48315E4006244F240CE864A86B2497A
:103DD40042492685D244056125A8411122C42E8476
:103DE4008395E50006C6C928FD575A24631AF500D1
:103DF400FD77FD17F98F5EA4B24022444101828011
:103E04008567D98F5EA468C8C5BF8395E50005A8FA
:103E1400411122C42A842E85B285368623AA010C38
:103E240006C6EFE03FA5FD576317F5009387410DE4
:103E34009C4391C31CC0B240224441018280411181
:103E440022C42A842E8523AA010C06C6B122FD575A
:103E54006317F5009387410D9C4391C31CC0B24086
:103E6400224441018280411122C42A842E85B285D4
:103E740023AA010C06C63D22FD576317F50093875C
:103E8400410D9C4391C31CC0B24022444101828035
:103E9400411122C42A842E8523AA010C06C6092AAC
:103EA400FD576317F5009387410D9C4391C31CC0D4
:103EB400B240224441018280411122C42A842E85C9
:103EC400B285368623AA010C06C6CD28FD57631792
:103ED400F5009387410D9C4391C31CC0B24022441A
:103EE4004101828093F5F50F2A966314C5000145BC
:103EF40082801C21E38EB7FE0505C5BF82808280C7
:103F040081E5B2856FF04FB7011122CC06CE26CAE7
:103F14004AC84EC6328401EEEFF08FAB0149F2403D
:103F240062444A85D2444249B24905618280AE84E2
:103F3400AA8989282689E37485FEA2854E85EFF037
:103F4400AFB32A8969DDA6852286EFE0FF9AA685AC
:103F54004E85EFF0EFA7E1B7411122C42A842E85E4
:103F6400B285368623AA010C06C6B928FD57631705
:103F7400F5009387410D9C4391C31CC0B240224479
:103F84004101828083A7C5FF1385C7FF63D507005E
:103F9400AA959C413E9582809307800523AAF10C43
:103FA4007D5582809307800523AAF10C7D5582807C
:103FB4009307800523AAF10C0145828093078005AD
:103FC40023AAF10C7D5582809307800523AAF10C66
:103FD4007D558280467265713A2025642C2050728A
:103FE400657363616C65723A2025642C20415252DA
:103FF4003A2025640A0000005B5245504F52545D3C
:10400400206D6F6E69746F722061636B20657272CC
:104014006F72207374617475733D30782530325833
:1040240020286572723D256C75290D0A0000000078
:104034005B5245504F52545D206D6F6E69746F72C0
:104044002061636B206F6B0D000000005B524550D4
:104054004F52545D206D6F6E69746F722061636B93
:104064002074696D656F757420286572723D256CC6
:1040740075290D0A000000005B5245504F52545DF3
:10408400206D6F6E69746F72206672616D65207346
:10409400656E742028257542290D0A005616000005
:1040A40070160000A8160000BA160000CC16000016
:1040B400F21A0000761B0000B21B0000D41B0000A3
:1040C400F61B000076312E302E3000000D0A3D3DE7
:1040D4003D20415050202573204030783038303016
:1040E40033303030203D3D3D0D0A00005B435452D7
:1040F4004C5D20747970653D3078253032582072DB
:10410400733D257520706172616D5F636E743D252A
:1041140075206861735F69643D25750D0A000000B0
:104124005B4354524C2D49445D206D697373696E31
:1041340067207061796C6F616420666F72207365AB
:104144007420726571756573740D00005B53454E80
:10415400534F522D49445D20757064617465642029
:10416400746F202530325825303258253032582586
:1041740030325825303258253032580D0A000000AC
:104184005B4354524C2D504152414D5D206E6F2083
:104194006B6E6F776E20706172616D7320726571E2
:1041A4007565737465640D005B4354524C2D504126
:1041B40052414D5D206275696C642061636B2066B9
:1041C40061696C65640D00005B4354524C2D41439E
:1041D4004B2D504152414D5D20636E743D25752039
:1041E40072733D25750D0A005B4354524C2D5041AA
:1041F40052414D5D20656D70747920736574207231
:104204006571756573740D005B4354524C2D5041B8
:1042140052414D5D2075706C6F61642070657269E8
:104224006F6420696E76616C6964206C656E3D25EF
:104234006C75206C666C61673D3078253032580DA2
:104244000A0000005B4354524C2D504152414D5DD5
:104254002075706C6F616420706572696F64207A78
:1042640065726F20696E76616C69640D00000000F0
:104274005B4354524C2D504152414D5D206F757437
:10428400707574206374726C20696E76616C6964F5
:10429400206C656E3D256C75206C666C61673D30E5
:1042A40078253032580D0A005B4354524C2D50414E
:1042B40052414D5D206F7574707574206374726C17
:1042C40020626164206D6F64655B25755D3D2575B5
:1042D4000D0A00005B4354524C2D504152414D5D38
:1042E40020776F726B2074696D6520696E76616CDE
:1042F4006964206C656E3D256C75206C666C616725
:104304003D3078253032580D0A0000005B4354528A
:104314004C2D504152414D5D2073746F702074696F
:104324006D6520696E76616C6964206C656E3D25EF
:104334006C75206C666C61673D3078253032580DA1
:104344000A0000005B4354524C2D504152414D5DD4
:10435400206672657120696E76616C6964206C6593
:104364006E3D256C75206C666C61673D3078253038
:1043740032580D0A000000005B4354524C2D50414A
:1043840052414D5D20756E737570706F7274656403
:104394002064747970653D3078253034580D0A00F6
:1043A4005B4354524C2D504152414D5D206E6F2061
:1043B400737570706F7274656420706172616D657D
:1043C4007465727320696E207365740D00000000BB
:1043D4005B4354524C2D504152414D5D20627569EE
:1043E4006C64207365742061636B206661696C651D
:1043F400640D00005B4354524C2D504152414D5DBD
:1044040020736574206170706C6965642061636BEE
:1044140020636E743D25750D0A0000005B43545201
:104424004C2D4F55545055545D206275696C642071
:1044340071756572792061636B206661696C65646E
:104444000D0000005B4354524C2D41434B2D4F55FE
:10445400545055545D2071756572790D000000004B
:104464005B4354524C2D4F55545055545D20656D4B
:104474007074792073657420726571756573740D39
:10448400000000005B4354524C2D4F55545055547A
:104494005D20756E737570706F72746564206474DA
:1044A4007970653D3078253034580D0A00000000DD
:1044B4005B4354524C2D4F55545055545D20696EF6
:1044C40076616C6964206C656E3D256C75206C6644
:1044D4006C61673D3078253032580D0A00000000C9
:1044E4005B4354524C2D4F55545055545D206261DA
:1044F40064206D6F64655B25755D3D25750D0A004F
:104504005B4354524C2D4F55545055545D206E6F9F
:1045140020737570706F7274656420706172616D60
:10452400657465727320696E207365740D000000F4
:104534005B4354524C2D4F55545055545D20627575
:10454400696C64207365742061636B206661696CB7
:1045540065640D005B4354524C2D41434B2D4F5524
:10456400545055545D20736574206170706C696596
:10457400640D00005B4354524C2D4F555450555418
:104584005D206E6F206B6E6F776E20706172616D4F
:1045940073207265717565737465640D00000000A5
:1045A4005B4354524C2D41434B2D49445D20747957
:1045B40070653D3078253032582072733D25752062
:1045C40049443D253032582530325825303258255B
:1045D40030325825303258253032580D0A00000048
:1045E4005B4354524C2D41434B2D43535D20737414
:1045F400617475733D3078253032580D0A0000001F
:104604005B4354524C2D41434B5D20706172616D8C
:104614005F636E743D2575207261775F6C656E3DD6
:1046240025750D0A000000005B4D4F4E5D20706142
:1046340072616D733D2575207261773D2575420D5C
:104644000A000000257300005B4D4F4E2D41434B83
:104654005D207374617475733D3078253032580D64
:104664000A0000005B4354524C2D41434B2D4944F6
:104674002D54585D2072733D25752069643D2530A5
:1046840032582530325825303258253032582530AA
:104694003258253032580D0A000000005B43545252
:1046A4004C2D41434B2D43535D207478207374612A
:1046B4007475733D3078253032580D0A00000000BF
:1046C40000000000000000000000000000000000E6
:1046D40000000000000000000000000000000000D6
:1046E40000000000000000000000000000000000C6
:1046F40000000000000000000000000000000000B6
:1047040000000000000000000000000000000000A5
:104714000000000000000000000000000000000095
:10472400232D302B20000000686C4C006566674523
:104734004647000030313233343536373839414258
:1047440043444546000000003031323334353637B7
:0C47540038396162636465660000000093
:104760000000000000000000010203040607080921
:104770000000000001020304010203040607080907
:1047800000000000E446000004470000C4460000AA
:104790000000000000000000000000000000000019
:1047A0000000000000000000000000000000000009
:1047B00000000000000000000000000000000000F9
:1047C00000000000000000000000000000000000E9
:1047D00000000000000000000000000000000000D9
:1047E0000123456789AB000000D8B805020406081C
:1047F00058090020200000202000002000000000B8
:00000001FF
