:040000006F10205FFE
:1000040000000000000000006612000068120000FA
:10001400000000000C0200000000000000000000CE
:100024000C0200000C0200000000000000000000B0
:100034000C020000000000000C02000000000000A0
:100044000C0200000C0200000C0200000C02000074
:100054000C0200000C0200000C0200000C02000064
:100064000C0200000C0200000C0200000C02000054
:100074000C0200000C0200000C0200000C02000044
:100084000C0200000C0200000C0200000C02000034
:100094000C0200000C0200000C0200000C02000024
:1000A4000C0200000C0200000C0200000C02000014
:1000B400DA0F0000A60F00000C0200000C02000082
:1000C4000C0200000C0200000C0200000C020000F4
:1000D4000C0200000C020000881100000C02000059
:1000E4000C0200000C0200000C0200000C020000D4
:0C00F4000C0200000C0200000C020000D6
:0401000021505041F9
:10010400397101436EC619A0397141536AC866CA70
:1001140062CC5ECE19A0397101535AD056D252D452
:100124004ED64AD826DA22DC06DE330161408282CA
:1001340041114AC026C222C406C68282B24D410180
:10014400024D924C224CB24B4101024B924A224A3C
:10015400B2494101024992442244B24041018280A1
:100164003D432A876373C3029377F700BDEFADE580
:10017400937606FF3D8ABA960CC34CC30CC74CC792
:100184004107E36BD7FE11E28280B306C3408A06BF
:100194009702000096966780A6002307B700A3067F
:1001A400B7002306B700A305B7002305B700A304CF
:1001B400B7002304B700A303B7002303B700A302C7
:1001C400B7002302B700A301B7002301B700A300BF
:1001D400B7002300B700828093F5F50F939685004E
:1001E400D58D93960501D58D61B793962700970217
:1001F400000096968682E78086FA9680C1171D8F46
:100204003E96E374C3F8A5B701A0C167E976014738
:10021400FD1785066314B7003E8582803306E5002A
:100224001022B18F214613F8170085836305080057
:10023400B58FC207C1837D167DF60507E1BFEFF2D6
:100244009FED09E9373501408145130505C0EF10DD
:10025400D00DE5BD1304803E33048502B7070020AA
:1002640083A70708AA8433D487024204418011E09B
:100274000544B3D78702054963E9970033D9970248
:10028400C1676364F9001389F7FF9305F4FFB73975
:100294000140C2050546138509C0C181EF10900BCA
:1002A400130AF9FF93150A01138509C0C181EF10E0
:1002B400500D93551A00C205138509C0C181EF1072
:1002C400900C138509C08545EF10300637350000C2
:1002D400CA862286A6851305454CEF10904095BF2B
:1002E400EFF21FE579718545714537140140EF1030
:1002F400A06C8D44414985470C10130504C026D2D7
:100304004AD42310F102EF10204689470C1013053C
:1003140004C02310F102EF102045A1470C1013056F
:1003240004C02310F102EF102044130504C08545D6
:10033400EF10E053130504C08945EF104053130533
:1003440004C0A145EF10A052930700100C10130530
:1003540004802310F1024AD4EF10004113050480F5
:1003640093050010EF10A050056585451305058021
:10037400EF10806485452145EF100064E1774C0857
:10038400FC82130504C0E1473ECE26CCEF10C03DED
:100394002800EF100076373401409307F0052C0055
:1003A4003EC4130504C09307703E3EC623080100F3
:1003B400EF1040640810EF102075930700063ED03C
:1003C400B707F40185073ED2B70702003ED40C10EC
:1003D400B7070001130504C03ED6EF1040681305AB
:1003E40004C08145EF100079130504C08545EF1062
:1003F400C0768145130504C0EF102073456199BB95
:100404006301050E638F050CEFF29FD22E84AA843C
:1004140081452285B12485452DC937150140130531
:1004240005C0EF108043854522851D2C89452DC5C7
:1004340037150140130505C0EF1020428945228578
:100444000524A1452DC137150140130505C0EF1042
:10045400C040228535249305001029CD371501406D
:1004640013050580EF10603F228531241384218217
:1004740029E91C2091CB373501408145130505C07E
:10048400EF10A06A23000400F1B1371501401305F1
:1004940005C0EF10C03D41BF37150140130505C02D
:1004A400EF10E03C61BF37150140130505C0EF10A4
:1004B400003C45B73715014013050580EF10203B7C
:1004C40065B71C2003D944009384018281C79E2010
:1004D400E38C27FB4A85A53385471CA02390240180
:1004E40065B7828021C19DCDA9471EB5B7071E00FF
:1004F400F9071CC199679387871A5EA189471CC5B0
:100504005CC51CC95CC91CCD5CCD1CD15CD19307F6
:10051400800C23A0050023A2050023840500BEA5AA
:1005240023A60500828009CD854791C90567130775
:1005340007E1AE876373B700BA87C207C1831EA100
:10054400828009CD854791C90567130707E1AE8706
:100554006373B700BA87C207C1833EA1828019C101
:100564000A2182800145828019C12A2182800145A5
:10057400828019C14A2182800145828031CDA9CD72
:10058400DE21944105478507C207C183DEA1639834
:10059400E6021A2119C763E6E70023A005002392A7
:1005A40005009C4105476392E7025849631FF70021
:1005B400F8A51C4D0547639FE700FCB582803621F2
:1005C400EDD2E3E0D7FE98C1D9BF238705000547E4
:1005D400E381E7FEA3870500828051C1C9C1984128
:1005E4008547631BF7001C45638FE7005445638C04
:1005F400E60014496389E60023930500238405007B
:10060400239605008280BA2505E3FD1793B71700EA
:10061400FCA15C45FD1793B71700FCB11C49FD17FD
:1006240093B717009CA58280DE253E964206418240
:100634006374E600D2A58280239605009387650043
:100644002105A5058546104101476315D600982369
:100654001347170098A385071105E396B7FE828018
:10066400AA8701C9094701456366B700AE97E82325
:1006740082800145828019C168258280014582807B
:1006840019C16835828001458280854663E6B600DB
:100694000145828001457DBCEFF29FA91C311821E0
:1006A400F915A207D98FC207C18713F73700C2070C
:1006B400C1838983C20538A21EA213042500C18107
:1006C40025CB6306D70089476303F7000D4713184A
:1006D400070113580801E3EF05FB81478144B30682
:1006E400F500B422939837008507B3961601D58C8C
:1006F40093F6F70FE3E5E6FEB3850541C2053A94A8
:10070400C181E3E995F844C2130700049307860006
:10071400268663749700130600042A89A2853E8501
:10072400EF10A06C33052441269542054181A5B7FD
:100734009144C1BF11E5014779A001473A8519BC2D
:100744007DDA0548E379B8FE1E2238228A070D8B2C
:10075400D98FC207C1871CA1C207C183A1831CB161
:100764003822544215E791470947E396F6FC0328DB
:100774008600E30208FCEFF2BF9B3384E600E3EE5D
:1007840085FA3A953686C285EF10206622877DB7B2
:1007940085476307070109488947630307018D47B4
:1007A40013872700E3E9E5F834A10548638C0701C2
:1007B40013D88600A30105010D486395070193D75B
:1007C40006015CA1CDF63A858280EFF2DF9401E563
:1007D400814426859DBAEDDEBD47E3EBC7FE954710
:1007E400E3F8E7FE3A8AB2842E899949AA85194624
:1007F40036853684EF10605FE30C3AFD31469397FB
:100804004400B384C4027CA09D49CA94631E990029
:1008140093842900E36E9AFA2285CE85FD324E94A4
:1008240008A0218108B075B74A86B3053A4133055B
:1008340034010937310949DDAA99C9BFEFF25F8F45
:100844001306C0118145293A31B2EFF27F8E2A8412
:10085400194613052510EF10405985472304F41059
:100864006FF05F8FEFF25F8A130101A62A840DCE29
:10087400035505101307F00F8147636BA700130797
:100884000010098F42074183BA876373E600B28779
:1008940093940701C18026862295EF100055835753
:1008A4000410A6972310F410130B24103D4A930A46
:1008B400800483590410A54763E637011301015AE4
:1008C4006FF01F881306C05981454800EFF05F8917
:1008D4001946A2854800EF1040518347841091CBFC
:1008E4001946DA854800EF10004E01C58547230EEE
:1008F400F1480349640093574900DC859357390054
:1009040023052101858B137979005C86A3062101D7
:10091400630A090E854B6319790F7C30230C21017E
:10092400A30CF100A144B1A80346A1016370CA025B
:10093400035604109305140022857D16EF1000560B
:1009440083570410FD172310F410A5B7330656037C
:10095400B38599405C00C205C181330594006106EA
:100964003E96253371D58347A101AA94C204850715
:100974000509C180230DF1001379F90F9C85E36506
:10098400F9FAB38999408547E3D437FBB307940058
:1009940003C917009C23A685220922853369F9001F
:1009A400EFF0BF86E316A9F88904C204C180231FAF
:1009B40091489307001063E997002686A2851305E2
:1009C400014AEF108042ADD48347C14989EF9C8628
:1009D40005476384E714638A071211476382E714A7
:1009E40015476382E71403560410B3059400228567
:1009F400058EEF10A04A83570410B3849740231048
:100A0400941045BD9D449DBF91476311F9087C3006
:100A14002307710113D71700858B2308F100D887AA
:100A240099476312F706B547A1441946E3FB37F526
:100A34009305840013052101EF10203BB944A3085A
:100A4400710181B70346A101E364CAEE330656037C
:100A5400B38599405C00C205C181330594006106E9
:100A64003E962531E30605EC8347A101AA94C2040E
:100A740085070509C180230DF1001379F90F9C85C1
:100A8400E362F9FCFDBD0149A144D5BF9547E311DB
:100A9400F9EA138779FF420741837C3063157701B4
:100AA400230CE100B5BD93D617001946639CC60418
:100AB40063FAE60413071060858B78872308F10036
:100AC40085BF0346A101E365CAE633065603B38531
:100AD40099405C00C205C1813305940061063E96CD
:100AE4006D36E30705E48347A101AA94C204850790
:100AF4000509C180230DF1001379F90F9C85E36288
:100B0400F9FC41B501499D44D5BF8327C410E38C4A
:100B140007EC4C0022858297F9B583270411C5BFE1
:100B240083274411EDB783278411D5B7EFF24FE043
:100B3400AA8413064002814513858184EFF04FE2B5
:100B440099C41946A68513858184EF10002A13845D
:100B540081849307803E1CCC6FF0CFDF9386818421
:100B6400D84E938781840507D8CE83D641EA99E28B
:100B74009306C003984705076374D70098C782801B
:100B8400054723A40700D8A7828093878184944BC8
:100B940005476399E602D84B3A95984FC8CB6363EF
:100BA400E502EFF2EFD88C533735000013050556F4
:100BB400850523A8070023AA07008CD3EF10603211
:100BC4006FF04FD98280EFF20FD5938781849C4BCD
:100BD4005571639D0710138981848347C900638716
:100BE400071003A481EA8145138581EA7D14133437
:100BF4001400BD3419C1136424008545138581EAAA
:100C0400853419C1136444008945138581EA893CFC
:100C140019C113648400138581EAB13C19C11364BA
:100C24000401138581EAA93C19C1136404024080BC
:100C34001385C1E7EFF0FF9368821385C1E7EFF0F6
:100C44001F9268841385C1E7EFF01F928327C901BF
:100C5400540036D43EC89167138707809386278053
:100C6400F8820547230BE1002316D102138717806E
:100C740034002310E10236DA0947938637809387DC
:100C840047803AD23AD83ADE2312F10478009147E9
:100C940005446886231CD102BAC0BEC413070008E9
:100CA4001C08940815464C081385818422CC0ACE6E
:100CB4002301810223078102230D810223030104FE
:100CC400BEC62136AA841DC193150501C1818808B9
:100CD400892937350000A6851305C55323288900C3
:100CE400232A090023060900EF10A01F69616FF091
:100CF400CFC531C55C29A1C793878184944B05472F
:100D0400639FE602EFF2CFC223AA07004C3923A85F
:100D140007001307F00F638DE5009053373500008B
:100D24001305854E050690D3EF10A01B6FF08FC2FC
:100D34003735000013050552EF10E02BC5BF828044
:100D440023140500231305000CC152A1232605001A
:100D540082807A211E254207C2074183C1836369C9
:100D6400F7004A213E957D15198D42054181828007
:100D74001385F7FFD5BF7E211A25C2074207C18319
:100D8400418363E7E7003385E74042054181828080
:100D94004A213E95198DD5BFEFF28FB941112EC668
:100DA40032C42A847D372246B2456376C5005C444A
:100DB4002A8685075CC47E205A20C207C1831D8F02
:100DC400BA86420741836373E600B286C206C182D3
:100DD4000147131507014181636AD5025A20B6976A
:100DE4000145B3E7E7023307D640420741831318AE
:100DF4000501135808016366E802BA975A20328540
:100E0400B3E7E7027EA041016FF0CFB43385E5007C
:100E14000348050008403E953A952300050105075F
:100E24004DBF3388A6002E98834808000328040089
:100E34003E982A9823001801050555BFEFF24FAFDD
:100E440041112EC632C42A843D372246B245328827
:100E54006363A6002A881E245A2013150801C207BA
:100E6400C1831D8FBA864207418141836373E500C4
:100E7400C286C206C1820147131607014182636913
:100E8400D6025A20B6970146B3E7E7023307D540A6
:100E94004207418313180601135808016365E802E9
:100EA400BA975A20B3E7E7021EA441016FF08FAA54
:100EB40010403E963A96034806003386E50005073F
:100EC4002300060155BF032804003E983298834846
:100ED40008003388C6002E982300180105065DBF5C
:100EE400EFF20FA5011185450945EF00D02EB70497
:100EF400002083A70408096793060771B3D7D702B4
:100F0400370400401307F7704C08130504403ACC2B
:100F1400231B0100FD17FC82EF00D02D05461305AD
:100F240004408545EF00F041130504408545EF007A
:100F3400D03F85450545EF00102A83A70408616763
:100F44001307076AB3D7E7024C0837050040231B91
:100F540001000544FD17FC829307703E3ECCEF0070
:100F640070290546854537050040EF00903D8545CD
:100F740037050040EF00703B9307C0027C86680091
:100F840085475C8722C8EF0030109307D0027C8627
:100F9400680089475C8722C8EF00100F05616FF075
:100FA4006F9B411122C63704004085451305044058
:100FB400EF00B03D09CD854513050440EF00703EB8
:100FC400938581EA1385C1E7EFF04FDB413E32445C
:100FD400410173002030411185453705004022C688
:100FE40026C4EF00903A0DC5854537050040EF0053
:100FF400503B938581EA29461385C1E7EFF0EFDD85
:1010040029456136938581EA1385C1E7EFF04FBF27
:101014003244A244410173002030EFF26F915D71BC
:1010240085451545EF005019854537050200EF0049
:10103400901A85450545EF0050168D473EC6371476
:10104400014091477C842C00E147130504803EC88D
:10105400EF008071A1477C842C0091471305048024
:101064003EC8EF006070F167374400409387072063
:101074003ECA4C08B7070C00130504403ECE02CC10
:1010840023100102EF00B032130504400546930516
:101094000004EF00703F13050440054693054042E9
:1010A400EF00303B130600409385C1A71385C1A60A
:1010B4004139B70402401385C406239201826D2B83
:1010C400930744403ED29387C1863ED493070020C1
:1010D4003ED8930700083EDC93070002BEC24C10C2
:1010E40085671385C406BEC402D602DA02DE82C056
:1010F40082C60D251385C4068545892D85451305AE
:101104000440EF00B033930760032312F102481048
:1011140085473ED423030102EF00007761616FF03D
:101124006F83EFE25FFFB7440040AA892E89014430
:101134009384044093170401C18363EE2701374469
:10114400004013040440930500042285EF00703529
:101154007DD96FE09FFF930500082685EF0070346A
:101164007DD9B38789008C2326850504EF00F032EE
:10117400D1B7EFE2FFFB2E86AA851385C1A67D3980
:101184006FE05FFD011122CE3744004093054042D9
:101194001305044026CC4ACA4EC8EF00303151C171
:1011A40083570440370502401305C506C207C183AF
:1011B4007C863C868357444013040020C207C183C5
:1011C4007C873C87712B938741823305A4409E23FF
:1011D400131905011359090193844182636AF904BF
:1011E4008220330489404204418009C88E209387B9
:1011F400C1862286BE951385C1A6793E239024011B
:10120400938781829843050798C39387C1829A2361
:101214006373870082A39389C1A603A7C90023A887
:10122400E1827244E2445249C249056173002030AC
:101234009E201D8C4204418009C88E209387C1865C
:101244002286BE951385C1A6813E630809004A869D
:101254009385C1861385C1A681364A944204418090
:1012640071BF01A0B707EFBE37E700E09387070817
:101274003CC701A0EFE2DFEB03C8D500FC29D82569
:10128400B4351D71373600001306465B930500061E
:101294000A85EF00F0560A85EF00B04425616FE03F
:1012A4007FEBEFE2FFE803D7A549F4291D71373638
:1012B400000013060667930500060A85EF005054E4
:1012C4000A85EF00104225616FE0DFE8EFE25FE698
:1012D400DC3559718DCFBC39373600001306865E74
:1012E4003EC4BC2908083EC29C393EC083C80501DF
:1012F40003C8F500FC25D825B43593050006EF0096
:1013040030500808EF00F03D65616FE0BFE4DC2970
:10131400F42989CF81EED43937360000130686626A
:10132400930500060808EF00B04DE1BF03D7A549B7
:101334003736000013068664930500060808EF009C
:10134400304CC1B7DC2985CBEFE29FDE39712E85A5
:101354002E84EFF01F9A5438373600001306C668FF
:10136400930500040A85EF00B0490A85EF00703741
:1013740021616FE03FDE8280EFE29FDB4111054592
:101384000923E92AEF005016716513050520EF00C3
:1013940050189307800873A0078041318545214583
:1013A400212DE177371401407C828D47130504C059
:1013B4003EC44C00C1473EC6231301007526A165F7
:1013C400130504C05929138581EBEFF02FC79385CA
:1013D4000181138581EBEFF04FC713850181EFF095
:1013E400EFF4B7170000938481EB9387672A23A651
:1013F400F410B71700009387873423A8F410B717A5
:1014040000009387872723AAF410B7170000938757
:10141400072D23ACF4101385C1E7938581EAEFF01F
:101424006F8CEFE0FFEBEFF0BFABB7350000373563
:1014340000009385C55813054559EF00902A13857C
:10144400C1E7A945EFF02F8E1385C1E7A945EFF059
:101454004F8F93050010138541FD213B2A8619C542
:10146400938541FD138581EBEFF0CFBFEFF0AFF52E
:10147400CDB7B71702409843B706FFF04111136781
:10148400170098C3D84337060200758FD8C3984312
:10149400B706F7FEFD16758F98C39843B706FCFF91
:1014A400FD16758F98C3D843B70601FFFD16758FD7
:1014B400D8C337079F0098C702C402C69843C166C1
:1014C400558F98C3B716024005679C42F18F3EC6FC
:1014D400A24785073EC4B24781E7A247E397E7FEE8
:1014E400B71702409C431397E700635707068547E5
:1014F4003EC632478547631FF704B7170240D843F7
:10150400B706C1FFFD16D8C3D843D8C3D843136761
:101514000740D8C3D843758FD8C3D843B70629002A
:10152400558FD8C39843B7060001558F98C3984385
:1015340093166700E3DD06FED843B7160240719B9D
:10154400D8C3D84313672700D8C32147DC42B18BE3
:10155400E39EE7FE4101828002C661BFB7160240E6
:10156400DC42370700201146B18B13070708638557
:10157400C70021466388C702B7177A0093870720FC
:101584001CC3B7170240DC43918393F6F700B707F7
:10159400002093870700B69794231C43B3D7D70042
:1015A4001CC38280DC42D4424166C983BD8BF18E68
:1015B400890745466393C700C94781EEB746024091
:1015C40083A60680C18A89CEB7167A009386062040
:1015D40021A8B7160240D4421396E600E35606FE4D
:1015E400B7163D0093860690B387D70251BF97F193
:1015F400FF1F9381E12817410020130161A01725E3
:1016040000001305251497F5FF1F9385659F138626
:10161400018263FAC5008322050023A05500110549
:101624009105E3EAC5FE138501829385810D6377F5
:10163400B500232005001105E36DB5FEFD4273904E
:1016440002BC8D4273904280B7220000938282884C
:101654007390023097F2FFFF9382C29A93E23200B2
:1016640073905230EFF0FFE097020000938202D1B2
:1016740073901234730020301C4141677917F98F3D
:101684001CC1232005002322050023240500B707DD
:10169400024023260500138787006316E500D8431C
:1016A4001367F70001A81387C7016317E500D84340
:1016B4001367070FD8C3B1A8138707036318E5009E
:1016C400D8438566938606F0558FEDB71387470494
:1016D4006315E500D843BD66C5BF13878705631648
:1016E400E500D843B7060F00C5B71387C7066316CE
:1016F400E500D843B706F000C1BF13870708631697
:10170400E500D843B706000FC1B713874709E308BC
:10171400E5F882801C4161773D0794517D8F9C459B
:10172400D58F9449D58FD449D58F944DD58FD44D29
:10173400D58FD451D58F9455D58FD98F1CC1DC4505
:101744005CC19C411CC5DC415CC582801C4189C5CF
:1017540093E717001CC1828041677917F98FDDBFB9
:1017640048414205418182809C4513F7070113F8E3
:10177400F70001C7D8413368E80037270240145BFB
:101784003707000F758F4DEB8546238AD1823717B3
:1017940001406315E5009A2135839AA18E2113F740
:1017A400F50F39C318418146854E3D4F930F800292
:1017B40093028004214E3396DE00B3F8C500631112
:1017C40016039398260033131F011343F3FF337753
:1017D400E300B318180133E7E8006397F70750C92B
:1017E4008506E39AC6FD18C11307F00F6375B704A5
:1017F40054412146854E3D4F930F8002930280044D
:10180400414EB398CE0033F715016392E8021317E3
:10181400260001173313EF001343F3FFB376D3000D
:101824003317E800D98E6395F703232A15010506BB
:10183400E319C6FD54C1828037170140E310E5F671
:1018440003C7418321DF81BFE39C57F810C949BF17
:10185400E39F57FC23281501D9BFB717014063162E
:10186400F50083C7418391C3B5810CC98280B71742
:1018740001406316F50083C7418391C3B5814CC908
:10188400828023ACA182828003A7818385471421AF
:101894006310F7021C31639CE7023C21960793E72F
:1018A40007F837E700E093F7F70F36972300F74080
:1018B400054793D756003317D700544189CE9387F1
:1018C40007048A07B7E600E0B69798C38280EDF371
:1018D4003C219607F9B793870706E5B73717024007
:1018E4005C439146B18B6385D700A1466382D706DA
:1018F400B7177A00938707201CC1371602405C4251
:1019040037070020130707019183BD8BBA979423EF
:101914001C41B3D7D7005CC15442A1829D8ABA96B8
:101924009422B3D6D70014C55442AD829D8A36970B
:101934001823B3D7E7005CC5584239839376370040
:101944001387418036971823B3D7E7021CC98280D6
:101954005C435843C166C983BD8B758F8907C546EF
:101964006393D700C94701EF374702400327078035
:10197400418B09CF37177A001307072021A837179F
:10198400024058439316E700E3D606FE37173D009E
:1019940013070790B387E70285B799C53717024045
:1019A4005C4B5D8D48CB8280B7170240D84B134502
:1019B400F5FF798DC8CB828099C5371702401C4F3B
:1019C4005D8D08CF8280B7170240984F1345F5FF0D
:1019D400798D88CF828099C5371702405C4F5D8D21
:1019E40048CF8280B7170240D84F1345F5FF798D51
:1019F400C8CF82801E2137370140130707C0C207B2
:101A0400C1836304E502370700406300E50213075E
:101A14000740630CE5003717004093060780630610
:101A2400D500130707C06316E500BA2193F7F7F84A
:101A3400D98FFA2193F7F7CFC207C183D98F1EA19B
:101A4400DE215EB59E211EB5B7370140938707C0DE
:101A54006314F5009C251EB985475EA982801E315A
:101A640003D88500C207C18393F7F7EFC207C18388
:101A74001EB11E3156215A2DC20713960601420784
:101A8400962141831377C7F8558FB621C18393F705
:101A9400F7DFB3E60601A206D58FB7360140C207C9
:101AA400938606C04182C183631FD502FD76938667
:101AB400F67FF58FB62503D8C500A206D58FD621AB
:101AC400C207C183A20693F7F7BFD58FF576FD163B
:101AD400F18EF225C207C183336606011206D18E48
:101AE40013960601418252A15AADFA215ABD1EB184
:101AF4008280FD575EA123100500231305002311E6
:101B0400050023040500828023100500231105002D
:101B140023120500231305002314050023150500D3
:101B2400231605002317050082801E2189C593E72B
:101B340017001EA18280C207C183F99BC207C1831B
:101B4400CDBF5E2501C6DD8D4EA5828093C5F5FF10
:101B5400FD8DDDBF0EB552A982801E2189C593E794
:101B640007081EA18280C207C18393F7F7F7C20753
:101B7400C183C5BF5E2DC207C183DD9BDD8D4EAD24
:101B840082804EB582804EBD82801E294A25ED8F0B
:101B94004205418189C76D8D3335A000828001459E
:101BA400828093C5F5FFC205C1810EA98280EFE250
:101BB4002FD81629F577FD17F58FF621DA257971D7
:101BC400D58F1EA95625FD779387379FF58FD6218C
:101BD4002A842EC6D58F9625D58FB625D58F5EA59A
:101BE4005E29C207C18393F7F7CFD98F5EA968082E
:101BF400F531B747014093870780B245631EF4026D
:101C0400A2576547B387E7029841930640060A073F
:101C1400B3D7E70233D7D702B3F7D7021207920735
:101C240093872703B3D7D702BD8BD98FC207C1834C
:101C34001EA445616FE00FD29257E1B791C55E25AE
:101C44000967D98F5EA582805A25F977FD17F98F28
:101C5400D5BF13F7F50F85471583B395B7006319FF
:101C6400F7009307C500984301CED98D8CC38280B9
:101C7400894693074501E318D7FE93070501E5B7A5
:101C840093C5F5FFF98DDDB75E2901C6DD8D4EA93B
:101C9400828093C5F5FFFD8DDDBF93F5F51F4EA141
:101CA40082800A216D8D3335A000828013F7F50FF1
:101CB40085461583B397B6006311D7025A25F98F69
:101CC4001A2101454207418381CB0545A181B31502
:101CD400B5006D8F3335E000828089466314D700E8
:101CE4001A29F1BF5A29E1BFB707002083A70708C3
:101CF40037177A0013070720B3D7E70293F7F70FD4
:101D0400238FF1821307803EB387E702239EF1827B
:101D14008280EFE2EFC12A84116501118545110526
:101D24006139930700207C82371501408D473EC4FA
:101D34004C00E147130505803EC6EFF0FFA222C820
:101D440037440140B70708000C08130504803ECC53
:101D540002CA231E0100A13D854513050480F93DF7
:101D640005616FE02FBFEFE20FBBB7440140AE89BE
:101D74003289014493840480634524014A856FE0D9
:101D8400CFBC930500042685293F65DDB387890010
:101D94008385070026850504C205C181FD3DE9BF91
:101DA400138781801C439386810D3E95636BD50018
:101DB400B75600209386068063E5A60008C33E85D7
:101DC4008280FD57EDBF01476314E6000145828020
:101DD400B307E5000507B386E5009C2383C6F6FF39
:101DE400E384D7FE3385D7408280B3C7A5008D8BAB
:101DF4003307C50081E78D4763EDC700AA87637E7B
:101E0400E508942185078505A38FD7FEE3EBE7FE5C
:101E1400828093763500AA8789CA9421850785052F
:101E2400A38FD7FE93F63700C5BF9376C7FF1386FB
:101E340006FE63F0C70683A3050083A2450083AFB3
:101E4400850003AFC50083AE050103AE450103A3BE
:101E5400850183A8C5019385450223A0770003A8C3
:101E6400C5FF23A2570023A4F70123A6E70123A853
:101E7400D70123AAC70123AC670023AE17019387B8
:101E8400470223AE07FF75B790419107910523AE32
:101E9400C7FEE3EBD7FEE3E6E7F6828063F1A50431
:101EA400B386C500637DD5029345F6FF8147FD17D0
:101EB4006393F50082803387F60003480700338775
:101EC400C7002A9723000701DDB73387F5001423E1
:101ED4003307F500850714A3E319F6FE82808147D2
:101EE400E5BF39713EDA2ED232D436D63AD842DC46
:101EF40046DE9387C18022CC804326CA06CEAA84BC
:101F040009C41C4C99E322859D230C445410268655
:101F1400228536C6EF00F04DF2406244D24421617E
:101F24008280011126CA4AC806CE22CC4EC652C4AB
:101F3400AA842E8901C51C4D91E3152B9C4C804429
:101F440099E326852D23971700009387E777631B72
:101F5400F402C0405E24A18BB1C71C48A1C7FD593F
:101F6400294A1C4483450900FD17B1E91CC463DDFB
:101F740007062286A9452685D528FD576308F5025C
:101F8400294535A097170000938707766314F4005A
:101F94008044C9B79717000093870771E31CF4FACC
:101FA400C0444DBFA2852685412255D97D55F240B6
:101FB4006244D2444249B249224A056182801CC427
:101FC400050963D70700184C63CAE7006388450115
:101FD4001C401387170018C08CA361B7228626857E
:101FE4007120E31035F9D9B71C401387170018C0C6
:101FF400294798A371B79387C180AA85884315B7E9
:1020040035713ECBA6DA36C73AC942CD46CF93875F
:10201400C18086DEA2DC844363DB05009307B0083D
:102024009CC07D55F6506654D6540D61828093074A
:102034008020FC822AC42ACC814799C19387F5FF6A
:102044003EC83ECE7401FD572E8426852C00FC83A9
:1020540036C2EF00300DFD576355F5009307B00805
:102064009CC069D0A247238007006DBF011122CC18
:1020740026CA4AC806CE4EC6AA842E89328401C511
:102084001C4D91E3ED26971700009387E7636317D0
:10209400F406C0401C4C1CC45E24A18BC1C31C4864
:1020A400B5CF1C4808409379F90F1379F90F1D8DAA
:1020B4005C486346F500A2852685692C25E51C4409
:1020C4000505FD171CC41C401387170018C0238086
:1020D40037015C486388A7005E24858B81CBA947C0
:1020E4006316F900A2852685B5240DEDF2406244FD
:1020F4004A85D2444249B24905618280971700005B
:102104009387875E6314F400804469B797170000CF
:1021140093878759E310F4F8C044ADBFA2852685A0
:10212400212041D17D59D9B741119387C18026C25D
:10213400844322C44AC006C62A892E8489C49C4C7E
:1021440099E326852D26971700009387E757631B8D
:10215400F402C0400317C40093170701C18393F628
:102164008700ADEA93F6070195EEA5472320F90011
:10217400136707045AA47D55B2402244924402498D
:102184004101828097170000938707566314F40077
:102194008044C9B79717000093870751E31CF4FAEA
:1021A400C0444DBF918B9DC34C5889C993074404C7
:1021B4006384F5004A853123232A04025E24232202
:1021C400040093F7B7FD5EA41C481CC05E2493E78B
:1021D40087005EA41C4899EB5E241307002093F744
:1021E40007286385E700A2854A85A1215E2413F7A9
:1021F40017001DC35C4823240400B307F0401CCC23
:102204001C480145B5FB8317C40013F707082DD7F5
:1022140093E707045EA485B7898B014791E3584887
:1022240018C4F9BFDE25011122CC26CA06CE4AC83D
:102234004EC613F78700AA842E8479EBD841634DE8
:10224400E000B841634AE0000145F2406244D244F0
:102254004249B2490561828058547DD703A90400DC
:102264009396370123A0040063DB060670485E24BE
:10227400918B99C75C401D8E5C5899C33C401D8E60
:102284005C540C50814626858297FD575A24631D61
:10229400F5009440F54763E8D706B7074020850763
:1022A400B3D7D700858BA5C31C48232204001CC0C8
:1022B4009317370163D80700FD576314F5009C405A
:1022C40091E368C84C5823A02401BDDD930744045E
:1022D4006384F5002685F526232A0402B5B70C503D
:1022E4000146854626850297FD572A86E311F5F8AF
:1022F4009C40B5DF75476385E70059476393E7045E
:1023040023A0240191B7136707045AA47D5535BF50
:1023140083A90501E38A09F203A905008D8B23A093
:10232400350133093941014791E3D84918C4E35DC4
:1023340020F11C540C50CA864E862685829763472A
:10234400A0005E2493E707045EA4C9B7AA993309E1
:10235400A940F1BF9C49B9CF011122CC06CE2A84F1
:1023640011C51C4D81E72EC61922B24597170000EE
:1023740093878735639BF5004C408397C50095C7C9
:1023840022856244F240056171BD9717000093876E
:10239400A7356394F5000C44CDB7971700009387D5
:1023A400A730E39CF5FC4C44C9BFF24062440145AC
:1023B4000561828001458280411122C406C62A84B7
:1023C4004EA572A523200500232205002324050021
:1023D4002322050623280500232A0500232C0500B3
:1023E400214681451305C505EFD09FD797170000F7
:1023F400938747E65CD097170000938767E81CD45F
:1024040097170000938747EC5CD4971700009387D5
:10241400A7EE00D01CD8B240224441018280970527
:102424000000938565F3A9A2411126C21306800614
:102434009384F5FFB384C4024AC02E8922C406C61D
:10244400938544071D262A8401CD232005002322D9
:102454002501310508C4138684068145EFD05FD079
:102464002285B240224492440249410182801C4D9B
:10247400ADE3411106C622C497070000938767FAAB
:102484001CD5938781819C432324050423260504BA
:10249400232805046314F50085471CCD2A841D28D0
:1024A40048C02285052808C422852D2048C44840F8
:1024B40001469145113708440546A545F53D484474
:1024C4000946C945D53D85471CCCB240224441014B
:1024D4008280828041119387818126C284434AC0CD
:1024E40006C69C4C22C42A8999E3268549379384DD
:1024F40084048044DC40FD1763D607009C40B9CFB8
:102504008440C5BF0317C40039E7C1778507232278
:1025140004062320040023220400232404005CC4B2
:1025240023280400232A0400232C04002146814587
:102534001305C405EFD0DFC2232A0402232C0402AE
:1025440023240404232604042285B2402244924412
:102554000249410182801304840671BF91454A8572
:10256400E13588C051FDB1472320F9000144E9BF9A
:10257400797122D44AD052CC56CA5AC85EC606D6FD
:1025840026D24ECE2A8AAE8A130485040149054B0D
:10259400FD5B09ECB25022544A8592540259F24927
:1025A400624AD24A424BB24B456182800444832939
:1025B4004400FD1963D409000040E1BFDE24637BBD
:1025C400FB008397E40063877701A6855285829A8E
:1025D4003369A90093848406E9BF1971A6DAAE842D
:1025E4008395E500A2DC86DE328463DB0500DE240D
:1025F40023A0060093F7070885E7930700401DA072
:10260400300836C6EF00D054B246E34205FE7247A6
:10261400BD67F98F7977BA9793B717009CC2F1BF5A
:10262400930700041CC0F6506654D6540145096152
:102634008280DE25011122CC06CE26CA4AC8898BA7
:102644002E8489CF930774041CC01CC885475CC8BA
:10265400F2406244D24442490561828074003000F1
:10266400AA84A53FA2452A892685012219E9831750
:10267400C40013F7072069FFF19B93E727005EA4CA
:10268400D1B7970700009387C7D99CD45E2408C0AC
:1026940008C893E707085EA4A2475CC8B24781CF85
:1026A4008315E4002685EF00504D11C55E24F19B8F
:1026B40093E717005EA45E243369F900231624010E
:1026C40041BFDDC183A7C5FF411122C406C626C28E
:1026D4001384C5FF63D307003E94AA84EF00B0506F
:1026E400938701849C4381EF2322040023A08184E7
:1026F4002244B2402685924441016F00F04E637E2D
:10270400F40014403307D4006396E7009843DC4395
:10271400369718C05CC0D9BFBA87D84319C3E37DC4
:10272400E4FE94433386D700631F86001040B296BC
:1027340094C33386D700E31DC7FA10435843B296B7
:1027440094C3D8C375B76375C400B1479CC04DB773
:102754001040B306C4006316D70014435843B2961E
:1027640014C058C0C0C369B78280011126CA9384BB
:102774003500F19806CE22CC4AC84EC6A104B14712
:1027840063F5F404B14463E4B4042A89EF00B0456A
:102794009387018498433A8429E4938741849C4332
:1027A40099E781454A85EF00102823A2A184A685D4
:1027B4004A85EF005027FD5963193507B147232097
:1027C400F9004A85EF00504229A0E3DE04FAB1473C
:1027D4001CC10145F2406244D2444249B2490561F8
:1027E40082801C40858F63CF0702AD4663F6F600F6
:1027F4001CC03E9404C031A05C406313870223A034
:10280400F1844A85EF00503E1305B4009307440059
:1028140061993307F5405DDF3A94898F1CC05DBF31
:102824005CC3C5B72287404085BF13043500719847
:10283400E30285FCB305A4404A85EF00D01EE31BE8
:1028440035FBADBF01114AC803A9850022CC52C48F
:102854005AC006CE26CA4EC656C22E84328B368A3B
:1028640063E82609DE2513F7074849C304408C4969
:102874005848AA8AB389B4408D44B384E402094712
:10288400B3C4E402138716004E9763F3E400BA84DA
:1028940093F70740B5CFA6855685C13D2A891DE12A
:1028A400B14723A0FA005E247D5593E707045EA494
:1028B400F2406244D2444249B249224A924A024B0B
:1028C400056182800C484E86EFF02FD25E2493F788
:1028D400F7B793E707085EA42328240144C84E9958
:1028E400B38434412320240104C4528963732A012C
:1028F400528908404A86DA85EFF04FDA1C440145D4
:10290400B38727411CC41C403E99232024014DB7A2
:1029140026865685EF00702D2A895DFD0C48568564
:102924004D33BDBFDE25717126D34AD14ECF06D7B4
:1029340022D552CD56CB5AC95EC762C566C393F73A
:102944000708AA892E89B284B1C39C49A1E39305DF
:10295400000436C6193D2320A9002328A900B24645
:1029640015E1B14723A0F9007D55BA502A549A5471
:102974000A59FA496A4ADA4A4A4BBA4B2A4C9A4CDF
:102984004D61828093070004232AF9009307000213
:10299400A30CF1029307000302DA230DF10236CEF1
:1029A400930B5002971A0000938A0AD6054C294BC0
:1029B40026841C2099C363987709B30C9440638DD3
:1029C4000C00E6862686CA854E85AD3DFD57630B11
:1029D400F518D256E69636DA1C2063850718FD579B
:1029E4009304140002D002D63ED202D4A3010106FD
:1029F40082DC8C2015465685EF00701D138414006C
:102A0400825721E513F7070109C713070002A30141
:102A1400E10613F7870009C71307B002A301E10613
:102A240094201307A002638AE602B25726848146E3
:102A34002546182093051400130707FD6372E60664
:102A44008DC63ED61DA00504ADB7330555413315DB
:102A5400AC00C98F3ED0A28469BF72479306470079
:102A6400184336CE634707023AD618209307E0028C
:102A7400631DF70418309307A002631BF702F247A3
:102A84000904138747009C433ACE63C107023ED230
:102A94002DA83307E04093E727003AD63ED0F1B79C
:102AA400B387670385462E84BA9761B7FD57C5B7C8
:102AB400050402D281468147254618209305140057
:102AC400130707FD6376E606F9F20C200D46171589
:102AD40000001305E5C3EF00900F11CD9717000018
:102AE400938707C31D8D93070004B397A70002556E
:102AF40005045D8D2AD00C20194617150000130516
:102B040065C193041400230CB102EF00500C25C5D9
:102B140097D7FFFF9387C74E95E70257F24713777E
:102B2400071009CF91073ECED257D2973EDA49B566
:102B3400B387670385462E84BA9741B79D07E19B07
:102B4400A107D5B77808970600009386E6CF4A8692
:102B54000C104E8597000000E7000000FD572A8AFC
:102B6400E314F5FC8357C9007D5593F70704E39EEE
:102B740007DE5255DDBB7808970600009386C6CC65
:102B84004A860C104E85FD2ED1BF1C46FD171CC66F
:102B940063DA0700184E63C5E700A9476394F5009C
:102BA4006FF0CFCC1C422E851387170018C28CA35C
:102BB4008280011122CC26CA4AC84EC652C406CE0F
:102BC4002A89AE893284B304D6007D5A63149400F2
:102BD400014501A80C204E864A85453F0504E317AC
:102BE40045FFF2406244D2444249B249224A056157
:102BF4008280357122CD26CB4AC94EC706CF52C535
:102C040056C35AC1DEDEE2DCE6DAAA89AE84328932
:102C1400368409C51C4D99E3EFF07F8597170000B2
:102C2400938787AA6397F40C83A44900DE24A18BBD
:102C3400FDC39C48EDC393070002A304F10293076C
:102C4400000302D22305F10222C6930B5002971A05
:102C54000000938A6AAB054C294B4A841C2099C313
:102C6400639E770DB30C2441638D0C00E6864A867F
:102C7400A6854E853D3FFD57630FF51C9256E6969B
:102C840036D21C206389071CFD571309140002C89F
:102C940002CE3ECA02CCA309010482D483450900B2
:102CA400154656852D2713041900C24751E913F719
:102CB400070109C713070002A309E10413F78700FA
:102CC40009C71307B002A309E104834609001307E7
:102CD400A002638FE606F2474A84814625461820FF
:102CE40093051400130707FD6377E60AB5CA3ECEC1
:102CF40085A8971700009387279F6395F40083A402
:102D040089002DB7971700009387079AE390F4F290
:102D140083A4C90021BFA6854E85EFF0EFC001DD75
:102D24007D55FA406A44DA444A49BA492A4A9A4AD9
:102D34000A4BF65B665CD65C0D618280050439BF84
:102D4400330555413315AC00C98F3EC82289B9B744
:102D5400324793064700184336C6634707023ACE04
:102D640018209307E002631DF70418309307A002AC
:102D7400631BF702B2470904138747009C433AC612
:102D840063C107023ECA2DA83307E04093E727003A
:102D94003ACE3EC8F1B7B387670385462E84BA9707
:102DA4003DBFFD57C5B7050402CA81468147254684
:102DB400182093051400130707FD6374E606F9F25F
:102DC4000C200D461715000013058594092511CD17
:102DD400971700009387C7931D8D93070004B3973B
:102DE400A700424505045D8D2AC80C201946171515
:102DF400000013052592130914002304B102C12B0A
:102E040035C197D7FFFF9387A71F95E74247B2477E
:102E14001377071009CF91073EC69257D2973ED237
:102E24002DBDB387670385462E84BA9751B79D0796
:102E3400E19BA107D5B77800970600009386A6D733
:102E440026860C084E8597000000E7000000FD5719
:102E54002A8AE314F5FCDE2493F70704E39207ECD3
:102E64001255C1B57800970600009386C6D426860D
:102E74000C084E85012AE1BF797156CA9C49BA8A69
:102E8400984522D426D24ECE52CC06D64AD05AC821
:102E94005EC6AA892E84B284368A63D3E700BA87D1
:102EA4009CC00347340419C385079CC01C4093F796
:102EB400070281C79C4089079CC003290400137939
:102EC4006900631A0900130B9401FD5B5C4498408C
:102ED400998F634CF9041C408346340493F707022A
:102EE400B336D000A5EB13063404D2854E85829AFE
:102EF400FD576303F5041C4011469840998B5444D4
:102F040081446397C700B384E64063D304008144DB
:102F14001C4418486354F700998FBE94014969040E
:102F24007D5B63982405014509A885465A86D285A8
:102F34004E85829A631E75017D55B2502254925477
:102F44000259F249624AD24A424BB24B45618280ED
:102F54000509ADBF3307D40013060003A301C7045A
:102F64000347540493871600A2978906A381E704B4
:102F74009DBF85462286D2854E85829AE30E65FBE7
:102F8400050945B7797122D426D24AD04ECE06D649
:102F940052CC56CA5AC8B689942D930790063289E2
:102FA400AA842E8413863504638DF60263E2D70661
:102FB400930780056386F61863EDD700638E0620B9
:102FC40093073004638EF60A930A24042301D4047D
:102FD400C9A0930730066385F60A93074006E39574
:102FE400F6FE1C40084393F6070893054500C5C642
:102FF4001C410CC363D807001307D002B307F04089
:10300400A301E4049706000093864671294765A846
:10301400930700076382F61663E5D7029307E00679
:103024006389F6189307F006E390F6FA0C401C4304
:1030340013F80508138547006307080608C39C4373
:1030440085A893075007E383F6FE930780076389F7
:10305400F61293073007E399F6F61C43D0418145F5
:103064009386470014C383AA070056858D2601C59D
:103074003305554148C05C401CC8A301040461A841
:103084001C43930A2404938647009C4314C32301DE
:10309400F4048547D5B793F607041C410CC3B9DA89
:1030A400C207C18781BF93F5050408C3C9D99E230C
:1030B4001307F0066387E60E9706000093860666FC
:1030C4002947A30104044C400CC463C5050008400F
:1030D4006D9908C099E3B28A89CDB28AB3F5E70243
:1030E400FD1AB6958C212380BA00B3D5E70263F0AC
:1030F400E70CA147631EF7001C40858B91CB584019
:103104001C4863C7E70093070003A38FFAFEFD1A68
:103114003306564110C84E87CA867000A28526859C
:10312400EFF09FD57D5A631D450B7D55B250225457
:1031340092540259F249624AD24A424B4561828012
:10314400A382D504970600009386465D0C4008438D
:1031540013F805081C411105630D080208C313F791
:10316400150001C793E505020CC04147B9FB0C40AB
:1031740093F5F5FD0CC0B1B79C4193E707029CC1E0
:1031840093078007A302F404970600009386465A27
:1031940075BF13F8050408C3E30308FCC207C18321
:1031A4007DBF9706000093866657214719BFAE87F7
:1031B40035B794411C43CC4913F8060813854700DE
:1031C4006306080008C39C438CC339A008C393F664
:1031D40006049C43F5DA8EA323280400B28A25BF93
:1031E40014485686CA8526858299E30045F51C4015
:1031F400898B8DE7B2474844E35AF5F23E853DB7E3
:1032040085465686CA8526858299E30065F3050AB4
:103214005C443247998FE345FAFEE9BF014A930AB9
:1032240094017D5BF5B7411122C42A842E8523AA1B
:10323400010C06C6EFE0DFB6FD576317F500938770
:10324400410D9C4391C31CC0B24022444101828081
:10325400411122C42E848395E50006C6DD2263490C
:1032640005007C48AA977CC8B24022444101828070
:103274005E247D777D17F98F5EA4FDB7DE250111ED
:1032840022CC26CA4AC84EC606CE93F70710AA8493
:103294002E843289B68991C78395E5008946014613
:1032A40009225E247D777D17F98F5EA48315E400DF
:1032B4006244F240CE864A86B24942492685D244C7
:1032C400056125A8411122C42E848395E50006C614
:1032D400C928FD575A24631AF500FD77FD17F98FA5
:1032E4005EA4B2402244410182808567D98F5EA4E6
:1032F40068C8C5BF8395E50005A8411122C42A8486
:103304002E85B285368623AA010C06C6EFE0BFA53A
:10331400FD576317F5009387410D9C4391C31CC06F
:10332400B240224441018280411122C42A842E8564
:1033340023AA010C06C6B122FD576317F500938733
:10334400410D9C4391C31CC0B24022444101828080
:10335400411122C42A842E85B28523AA010C06C6F3
:103364003D22FD576317F5009387410D9C4391C39C
:103374001CC0B240224441018280411122C42A84EB
:103384002E8523AA010C06C6092AFD576317F500EA
:103394009387410D9C4391C31CC0B2402244410118
:1033A4008280411122C42A842E85B285368623AABE
:1033B400010C06C6CD28FD576317F5009387410D10
:1033C4009C4391C31CC0B24022444101828093F5C6
:1033D400F50F2A966314C500014582801C21E38EF3
:1033E400B7FE0505C5BF8280828081E5B2856FF096
:1033F400CFB7011122CC06CE26CA4AC84EC63284A3
:1034040001EEEFF00FAC0149F24062444A85D24428
:103414004249B24905618280AE84AA8989282689F5
:10342400E37485FEA2854E85EFF02FB42A8969DD09
:10343400A6852286EFE07F9BA6854E85EFF06FA8D8
:10344400E1B7411122C42A842E85B285368623AA87
:10345400010C06C6B928FD576317F5009387410D83
:103464009C4391C31CC0B24022444101828083A783
:10347400C5FF1385C7FF63D50700AA959C413E95F8
:1034840082809307800523AAF10C7D5582809307DF
:10349400800523AAF10C7D5582809307800523AA19
:1034A400F10C014582809307800523AAF10C7D5518
:1034B40082809307800523AAF10C7D558280000049
:1034C400467265713A2025642C20507265736361DD
:1034D4006C65723A2025642C204152523A202564AE
:1034E4000A0000005B5245504F52545D206D6F6ED0
:1034F40069746F722061636B206572726F722073DE
:1035040074617475733D30782530325820286572A3
:10351400723D256C75290D0A000000005B52455070
:103524004F52545D206D6F6E69746F722061636BCE
:10353400206F6B0D000000005B5245504F52545DEC
:10354400206D6F6E69746F72206672616D65207391
:10355400656E742028257542290D0A005B5245507A
:103564004F52545D206D6F6E69746F722061636B8E
:103574002074696D656F757420286572723D256CC1
:1035840075290D0A0000000076312E302E3000001F
:103594000D0A3D3D3D204150502025732040307898
:1035A4003038303033303030203D3D3D0D0A00009E
:1035B4005B4354524C5D20747970653D30782530FE
:1035C40032582072733D257520706172616D5F639E
:1035D4006E743D2575206861735F69643D25750DC2
:1035E4000A0000005B4354524C2D41434B2D494487
:1035F4005D20747970653D307825303258207273BF
:103604003D25752049443D25303258253032582512
:103614003032582530325825303258253032580D42
:103624000A0000005B4354524C2D41434B2D43533D
:103634005D207374617475733D3078253032580D94
:103644000A0000005B4354524C2D41434B5D2070F3
:103654006172616D5F636E743D2575207261775F81
:103664006C656E3D25750D0A000000005B4D4F4EE4
:103674005D20706172616D733D2575207261773DC7
:103684002575420D0A0000005B4D4F4E2D41434B02
:103694005D207374617475733D3078253032580D34
:1036A4000A0000000000000000000000000000000C
:1036B4000000000000000000000000000000000006
:1036C40000000000000000000000000000000000F6
:1036D40000000000000000000000000000000000E6
:1036E40000000000000000000000000000000000D6
:1036F40000000000000000000000000000000000C6
:1037040000000000232D302B20000000686C4C00CA
:103714006566674546470000303132333435363705
:1037240038394142434445460000000030313233C9
:1037340034353637383961626364656600000000E9
:10374400000000000000000001020304060708094D
:103754000000000001020304010203040607080933
:1037640000000000C8360000E8360000A83600005B
:103774000000000000000000000000000000000045
:103784000000000000000000000000000000000035
:103794000000000000000000000000000000000025
:1037A4000000000000000000000000000000000015
:1037B4000000000000000000000000000000000005
:1037C40000D8B8050204060858090020200000208B
:1037D4000123456789AB00002000002000000000A1
:00000001FF
